{
	"contracts/BeggingContract.sol": {
		"BeggingContract": {
			"abi": [
				{
					"inputs": [],
					"stateMutability": "payable",
					"type": "constructor"
				},
				{
					"anonymous": false,
					"inputs": [
						{
							"indexed": true,
							"internalType": "address",
							"name": "donor",
							"type": "address"
						},
						{
							"indexed": false,
							"internalType": "uint256",
							"name": "amount",
							"type": "uint256"
						}
					],
					"name": "Donation",
					"type": "event"
				},
				{
					"anonymous": false,
					"inputs": [
						{
							"indexed": true,
							"internalType": "address",
							"name": "owner",
							"type": "address"
						},
						{
							"indexed": false,
							"internalType": "uint256",
							"name": "amount",
							"type": "uint256"
						}
					],
					"name": "Withdrawal",
					"type": "event"
				},
				{
					"inputs": [],
					"name": "donate",
					"outputs": [],
					"stateMutability": "payable",
					"type": "function"
				},
				{
					"inputs": [],
					"name": "donationEndTime",
					"outputs": [
						{
							"internalType": "uint256",
							"name": "",
							"type": "uint256"
						}
					],
					"stateMutability": "view",
					"type": "function"
				},
				{
					"inputs": [],
					"name": "donationStartTime",
					"outputs": [
						{
							"internalType": "uint256",
							"name": "",
							"type": "uint256"
						}
					],
					"stateMutability": "view",
					"type": "function"
				},
				{
					"inputs": [
						{
							"internalType": "address",
							"name": "",
							"type": "address"
						}
					],
					"name": "donations",
					"outputs": [
						{
							"internalType": "uint256",
							"name": "",
							"type": "uint256"
						}
					],
					"stateMutability": "view",
					"type": "function"
				},
				{
					"inputs": [],
					"name": "getContractBalance",
					"outputs": [
						{
							"internalType": "uint256",
							"name": "",
							"type": "uint256"
						}
					],
					"stateMutability": "view",
					"type": "function"
				},
				{
					"inputs": [
						{
							"internalType": "address",
							"name": "donor",
							"type": "address"
						}
					],
					"name": "getDonation",
					"outputs": [
						{
							"internalType": "uint256",
							"name": "",
							"type": "uint256"
						}
					],
					"stateMutability": "view",
					"type": "function"
				},
				{
					"inputs": [],
					"name": "getDonationPeriod",
					"outputs": [
						{
							"internalType": "uint256",
							"name": "startTime",
							"type": "uint256"
						},
						{
							"internalType": "uint256",
							"name": "endTime",
							"type": "uint256"
						},
						{
							"internalType": "bool",
							"name": "isActive",
							"type": "bool"
						}
					],
					"stateMutability": "view",
					"type": "function"
				},
				{
					"inputs": [],
					"name": "getTop3Donors",
					"outputs": [
						{
							"internalType": "address[3]",
							"name": "topAddresses",
							"type": "address[3]"
						},
						{
							"internalType": "uint256[3]",
							"name": "topAmounts",
							"type": "uint256[3]"
						}
					],
					"stateMutability": "view",
					"type": "function"
				},
				{
					"inputs": [],
					"name": "owner",
					"outputs": [
						{
							"internalType": "address",
							"name": "",
							"type": "address"
						}
					],
					"stateMutability": "view",
					"type": "function"
				},
				{
					"inputs": [],
					"name": "totalDonations",
					"outputs": [
						{
							"internalType": "uint256",
							"name": "",
							"type": "uint256"
						}
					],
					"stateMutability": "view",
					"type": "function"
				},
				{
					"inputs": [],
					"name": "withdraw",
					"outputs": [],
					"stateMutability": "nonpayable",
					"type": "function"
				},
				{
					"stateMutability": "payable",
					"type": "receive"
				}
			],
			"devdoc": {
				"kind": "dev",
				"methods": {},
				"version": 1
			},
			"evm": {
				"assembly": "    /* \"contracts/BeggingContract.sol\":61:5207  contract BeggingContract {... */\n  mstore(0x40, 0x80)\n    /* \"contracts/BeggingContract.sol\":1077:1087  msg.sender */\n  caller\n    /* \"contracts/BeggingContract.sol\":1069:1074  owner */\n  0x00\n  0x00\n    /* \"contracts/BeggingContract.sol\":1069:1087  owner = msg.sender */\n  0x0100\n  exp\n  dup2\n  sload\n  dup2\n  0xffffffffffffffffffffffffffffffffffffffff\n  mul\n  not\n  and\n  swap1\n  dup4\n  0xffffffffffffffffffffffffffffffffffffffff\n  and\n  mul\n  or\n  swap1\n  sstore\n  pop\n    /* \"contracts/BeggingContract.sol\":1118:1133  block.timestamp */\n  timestamp\n    /* \"contracts/BeggingContract.sol\":1098:1115  donationStartTime */\n  0x03\n    /* \"contracts/BeggingContract.sol\":1098:1133  donationStartTime = block.timestamp */\n  dup2\n  swap1\n  sstore\n  pop\n    /* \"contracts/BeggingContract.sol\":1196:1203  30 days */\n  0x278d00\n    /* \"contracts/BeggingContract.sol\":1178:1193  block.timestamp */\n  timestamp\n    /* \"contracts/BeggingContract.sol\":1178:1203  block.timestamp + 30 days */\n  tag_3\n  swap2\n  swap1\n  tag_4\n  jump\t// in\ntag_3:\n    /* \"contracts/BeggingContract.sol\":1160:1175  donationEndTime */\n  0x04\n    /* \"contracts/BeggingContract.sol\":1160:1203  donationEndTime = block.timestamp + 30 days */\n  dup2\n  swap1\n  sstore\n  pop\n    /* \"contracts/BeggingContract.sol\":61:5207  contract BeggingContract {... */\n  jump(tag_5)\n    /* \"#utility.yul\":7:84   */\ntag_6:\n    /* \"#utility.yul\":44:51   */\n  0x00\n    /* \"#utility.yul\":73:78   */\n  dup2\n    /* \"#utility.yul\":62:78   */\n  swap1\n  pop\n    /* \"#utility.yul\":7:84   */\n  swap2\n  swap1\n  pop\n  jump\t// out\n    /* \"#utility.yul\":90:270   */\ntag_7:\n    /* \"#utility.yul\":138:215   */\n  0x4e487b7100000000000000000000000000000000000000000000000000000000\n    /* \"#utility.yul\":135:136   */\n  0x00\n    /* \"#utility.yul\":128:216   */\n  mstore\n    /* \"#utility.yul\":235:239   */\n  0x11\n    /* \"#utility.yul\":232:233   */\n  0x04\n    /* \"#utility.yul\":225:240   */\n  mstore\n    /* \"#utility.yul\":259:263   */\n  0x24\n    /* \"#utility.yul\":256:257   */\n  0x00\n    /* \"#utility.yul\":249:264   */\n  revert\n    /* \"#utility.yul\":276:467   */\ntag_4:\n    /* \"#utility.yul\":316:319   */\n  0x00\n    /* \"#utility.yul\":335:355   */\n  tag_12\n    /* \"#utility.yul\":353:354   */\n  dup3\n    /* \"#utility.yul\":335:355   */\n  tag_6\n  jump\t// in\ntag_12:\n    /* \"#utility.yul\":330:355   */\n  swap2\n  pop\n    /* \"#utility.yul\":369:389   */\n  tag_13\n    /* \"#utility.yul\":387:388   */\n  dup4\n    /* \"#utility.yul\":369:389   */\n  tag_6\n  jump\t// in\ntag_13:\n    /* \"#utility.yul\":364:389   */\n  swap3\n  pop\n    /* \"#utility.yul\":412:413   */\n  dup3\n    /* \"#utility.yul\":409:410   */\n  dup3\n    /* \"#utility.yul\":405:414   */\n  add\n    /* \"#utility.yul\":398:414   */\n  swap1\n  pop\n    /* \"#utility.yul\":433:436   */\n  dup1\n    /* \"#utility.yul\":430:431   */\n  dup3\n    /* \"#utility.yul\":427:437   */\n  gt\n    /* \"#utility.yul\":424:460   */\n  iszero\n  tag_14\n  jumpi\n    /* \"#utility.yul\":440:458   */\n  tag_15\n  tag_7\n  jump\t// in\ntag_15:\n    /* \"#utility.yul\":424:460   */\ntag_14:\n    /* \"#utility.yul\":276:467   */\n  swap3\n  swap2\n  pop\n  pop\n  jump\t// out\n    /* \"contracts/BeggingContract.sol\":61:5207  contract BeggingContract {... */\ntag_5:\n  dataSize(sub_0)\n  dup1\n  dataOffset(sub_0)\n  0x00\n  codecopy\n  0x00\n  return\nstop\n\nsub_0: assembly {\n        /* \"contracts/BeggingContract.sol\":61:5207  contract BeggingContract {... */\n      mstore(0x40, 0x80)\n      jumpi(tag_1, lt(calldatasize, 0x04))\n      shr(0xe0, calldataload(0x00))\n      dup1\n      0x8da5cb5b\n      gt\n      tag_14\n      jumpi\n      dup1\n      0x8da5cb5b\n      eq\n      tag_8\n      jumpi\n      dup1\n      0x9fc2ac9d\n      eq\n      tag_9\n      jumpi\n      dup1\n      0xcc6cb19a\n      eq\n      tag_10\n      jumpi\n      dup1\n      0xde2ed893\n      eq\n      tag_11\n      jumpi\n      dup1\n      0xed88c68e\n      eq\n      tag_12\n      jumpi\n      dup1\n      0xf12a4a53\n      eq\n      tag_13\n      jumpi\n      jump(tag_2)\n    tag_14:\n      dup1\n      0x2d1e2518\n      eq\n      tag_3\n      jumpi\n      dup1\n      0x3ccfd60b\n      eq\n      tag_4\n      jumpi\n      dup1\n      0x410a1d32\n      eq\n      tag_5\n      jumpi\n      dup1\n      0x6f9fb98a\n      eq\n      tag_6\n      jumpi\n      dup1\n      0x78331552\n      eq\n      tag_7\n      jumpi\n      jump(tag_2)\n    tag_1:\n      jumpi(tag_2, calldatasize)\n        /* \"contracts/BeggingContract.sol\":4835:4852  donationStartTime */\n      sload(0x03)\n        /* \"contracts/BeggingContract.sol\":4816:4831  block.timestamp */\n      timestamp\n        /* \"contracts/BeggingContract.sol\":4816:4852  block.timestamp >= donationStartTime */\n      lt\n      iszero\n        /* \"contracts/BeggingContract.sol\":4808:4888  require(block.timestamp >= donationStartTime, \"Donation period has not started\") */\n      tag_17\n      jumpi\n      mload(0x40)\n      0x08c379a000000000000000000000000000000000000000000000000000000000\n      dup2\n      mstore\n      0x04\n      add\n      tag_18\n      swap1\n      tag_19\n      jump\t// in\n    tag_18:\n      mload(0x40)\n      dup1\n      swap2\n      sub\n      swap1\n      revert\n    tag_17:\n        /* \"contracts/BeggingContract.sol\":4926:4941  donationEndTime */\n      sload(0x04)\n        /* \"contracts/BeggingContract.sol\":4907:4922  block.timestamp */\n      timestamp\n        /* \"contracts/BeggingContract.sol\":4907:4941  block.timestamp <= donationEndTime */\n      gt\n      iszero\n        /* \"contracts/BeggingContract.sol\":4899:4971  require(block.timestamp <= donationEndTime, \"Donation period has ended\") */\n      tag_20\n      jumpi\n      mload(0x40)\n      0x08c379a000000000000000000000000000000000000000000000000000000000\n      dup2\n      mstore\n      0x04\n      add\n      tag_21\n      swap1\n      tag_22\n      jump\t// in\n    tag_21:\n      mload(0x40)\n      dup1\n      swap2\n      sub\n      swap1\n      revert\n    tag_20:\n        /* \"contracts/BeggingContract.sol\":5002:5003  0 */\n      0x00\n        /* \"contracts/BeggingContract.sol\":4990:4999  msg.value */\n      callvalue\n        /* \"contracts/BeggingContract.sol\":4990:5003  msg.value > 0 */\n      gt\n        /* \"contracts/BeggingContract.sol\":4982:5046  require(msg.value > 0, \"Donation amount must be greater than 0\") */\n      tag_23\n      jumpi\n      mload(0x40)\n      0x08c379a000000000000000000000000000000000000000000000000000000000\n      dup2\n      mstore\n      0x04\n      add\n      tag_24\n      swap1\n      tag_25\n      jump\t// in\n    tag_24:\n      mload(0x40)\n      dup1\n      swap2\n      sub\n      swap1\n      revert\n    tag_23:\n        /* \"contracts/BeggingContract.sol\":5092:5101  msg.value */\n      callvalue\n        /* \"contracts/BeggingContract.sol\":5067:5076  donations */\n      0x01\n        /* \"contracts/BeggingContract.sol\":5067:5088  donations[msg.sender] */\n      0x00\n        /* \"contracts/BeggingContract.sol\":5077:5087  msg.sender */\n      caller\n        /* \"contracts/BeggingContract.sol\":5067:5088  donations[msg.sender] */\n      0xffffffffffffffffffffffffffffffffffffffff\n      and\n      0xffffffffffffffffffffffffffffffffffffffff\n      and\n      dup2\n      mstore\n      0x20\n      add\n      swap1\n      dup2\n      mstore\n      0x20\n      add\n      0x00\n      keccak256\n      0x00\n        /* \"contracts/BeggingContract.sol\":5067:5101  donations[msg.sender] += msg.value */\n      dup3\n      dup3\n      sload\n      tag_26\n      swap2\n      swap1\n      tag_27\n      jump\t// in\n    tag_26:\n      swap3\n      pop\n      pop\n      dup2\n      swap1\n      sstore\n      pop\n        /* \"contracts/BeggingContract.sol\":5130:5139  msg.value */\n      callvalue\n        /* \"contracts/BeggingContract.sol\":5112:5126  totalDonations */\n      0x02\n      0x00\n        /* \"contracts/BeggingContract.sol\":5112:5139  totalDonations += msg.value */\n      dup3\n      dup3\n      sload\n      tag_28\n      swap2\n      swap1\n      tag_27\n      jump\t// in\n    tag_28:\n      swap3\n      pop\n      pop\n      dup2\n      swap1\n      sstore\n      pop\n        /* \"contracts/BeggingContract.sol\":5174:5184  msg.sender */\n      caller\n        /* \"contracts/BeggingContract.sol\":5165:5196  Donation(msg.sender, msg.value) */\n      0xffffffffffffffffffffffffffffffffffffffff\n      and\n      0x5d8bc849764969eb1bcc6d0a2f55999d0167c1ccec240a4f39cf664ca9c4148e\n        /* \"contracts/BeggingContract.sol\":5186:5195  msg.value */\n      callvalue\n        /* \"contracts/BeggingContract.sol\":5165:5196  Donation(msg.sender, msg.value) */\n      mload(0x40)\n      tag_29\n      swap2\n      swap1\n      tag_30\n      jump\t// in\n    tag_29:\n      mload(0x40)\n      dup1\n      swap2\n      sub\n      swap1\n      log2\n        /* \"contracts/BeggingContract.sol\":61:5207  contract BeggingContract {... */\n      stop\n    tag_2:\n      revert(0x00, 0x00)\n        /* \"contracts/BeggingContract.sol\":2997:4401  function getTop3Donors() external view returns (address[3] memory topAddresses, uint256[3] memory topAmounts) {... */\n    tag_3:\n      callvalue\n      dup1\n      iszero\n      tag_31\n      jumpi\n      revert(0x00, 0x00)\n    tag_31:\n      pop\n      tag_32\n      tag_33\n      jump\t// in\n    tag_32:\n      mload(0x40)\n      tag_34\n      swap3\n      swap2\n      swap1\n      tag_35\n      jump\t// in\n    tag_34:\n      mload(0x40)\n      dup1\n      swap2\n      sub\n      swap1\n      return\n        /* \"contracts/BeggingContract.sol\":2609:2939  function withdraw() external onlyOwner {... */\n    tag_4:\n      callvalue\n      dup1\n      iszero\n      tag_36\n      jumpi\n      revert(0x00, 0x00)\n    tag_36:\n      pop\n      tag_37\n      tag_38\n      jump\t// in\n    tag_37:\n      stop\n        /* \"contracts/BeggingContract.sol\":2294:2404  function getDonation(address donor) external view returns (uint256) {... */\n    tag_5:\n      callvalue\n      dup1\n      iszero\n      tag_39\n      jumpi\n      revert(0x00, 0x00)\n    tag_39:\n      pop\n      tag_40\n      0x04\n      dup1\n      calldatasize\n      sub\n      dup2\n      add\n      swap1\n      tag_41\n      swap2\n      swap1\n      tag_42\n      jump\t// in\n    tag_41:\n      tag_43\n      jump\t// in\n    tag_40:\n      mload(0x40)\n      tag_44\n      swap2\n      swap1\n      tag_30\n      jump\t// in\n    tag_44:\n      mload(0x40)\n      dup1\n      swap2\n      sub\n      swap1\n      return\n        /* \"contracts/BeggingContract.sol\":2443:2552  function getContractBalance() external view returns (uint256) {... */\n    tag_6:\n      callvalue\n      dup1\n      iszero\n      tag_45\n      jumpi\n      revert(0x00, 0x00)\n    tag_45:\n      pop\n      tag_46\n      tag_47\n      jump\t// in\n    tag_46:\n      mload(0x40)\n      tag_48\n      swap2\n      swap1\n      tag_30\n      jump\t// in\n    tag_48:\n      mload(0x40)\n      dup1\n      swap2\n      sub\n      swap1\n      return\n        /* \"contracts/BeggingContract.sol\":357:389  uint256 public donationStartTime */\n    tag_7:\n      callvalue\n      dup1\n      iszero\n      tag_49\n      jumpi\n      revert(0x00, 0x00)\n    tag_49:\n      pop\n      tag_50\n      tag_51\n      jump\t// in\n    tag_50:\n      mload(0x40)\n      tag_52\n      swap2\n      swap1\n      tag_30\n      jump\t// in\n    tag_52:\n      mload(0x40)\n      dup1\n      swap2\n      sub\n      swap1\n      return\n        /* \"contracts/BeggingContract.sol\":117:137  address public owner */\n    tag_8:\n      callvalue\n      dup1\n      iszero\n      tag_53\n      jumpi\n      revert(0x00, 0x00)\n    tag_53:\n      pop\n      tag_54\n      tag_55\n      jump\t// in\n    tag_54:\n      mload(0x40)\n      tag_56\n      swap2\n      swap1\n      tag_57\n      jump\t// in\n    tag_56:\n      mload(0x40)\n      dup1\n      swap2\n      sub\n      swap1\n      return\n        /* \"contracts/BeggingContract.sol\":4446:4719  function getDonationPeriod() external view returns (uint256 startTime, uint256 endTime, bool isActive) {... */\n    tag_9:\n      callvalue\n      dup1\n      iszero\n      tag_58\n      jumpi\n      revert(0x00, 0x00)\n    tag_58:\n      pop\n      tag_59\n      tag_60\n      jump\t// in\n    tag_59:\n      mload(0x40)\n      tag_61\n      swap4\n      swap3\n      swap2\n      swap1\n      tag_62\n      jump\t// in\n    tag_61:\n      mload(0x40)\n      dup1\n      swap2\n      sub\n      swap1\n      return\n        /* \"contracts/BeggingContract.sol\":192:236  mapping(address => uint256) public donations */\n    tag_10:\n      callvalue\n      dup1\n      iszero\n      tag_63\n      jumpi\n      revert(0x00, 0x00)\n    tag_63:\n      pop\n      tag_64\n      0x04\n      dup1\n      calldatasize\n      sub\n      dup2\n      add\n      swap1\n      tag_65\n      swap2\n      swap1\n      tag_42\n      jump\t// in\n    tag_65:\n      tag_66\n      jump\t// in\n    tag_64:\n      mload(0x40)\n      tag_67\n      swap2\n      swap1\n      tag_30\n      jump\t// in\n    tag_67:\n      mload(0x40)\n      dup1\n      swap2\n      sub\n      swap1\n      return\n        /* \"contracts/BeggingContract.sol\":270:299  uint256 public totalDonations */\n    tag_11:\n      callvalue\n      dup1\n      iszero\n      tag_68\n      jumpi\n      revert(0x00, 0x00)\n    tag_68:\n      pop\n      tag_69\n      tag_70\n      jump\t// in\n    tag_69:\n      mload(0x40)\n      tag_71\n      swap2\n      swap1\n      tag_30\n      jump\t// in\n    tag_71:\n      mload(0x40)\n      dup1\n      swap2\n      sub\n      swap1\n      return\n        /* \"contracts/BeggingContract.sol\":1280:2240  function donate() external payable {... */\n    tag_12:\n      tag_72\n      tag_73\n      jump\t// in\n    tag_72:\n      stop\n        /* \"contracts/BeggingContract.sol\":396:426  uint256 public donationEndTime */\n    tag_13:\n      callvalue\n      dup1\n      iszero\n      tag_74\n      jumpi\n      revert(0x00, 0x00)\n    tag_74:\n      pop\n      tag_75\n      tag_76\n      jump\t// in\n    tag_75:\n      mload(0x40)\n      tag_77\n      swap2\n      swap1\n      tag_30\n      jump\t// in\n    tag_77:\n      mload(0x40)\n      dup1\n      swap2\n      sub\n      swap1\n      return\n        /* \"contracts/BeggingContract.sol\":2997:4401  function getTop3Donors() external view returns (address[3] memory topAddresses, uint256[3] memory topAmounts) {... */\n    tag_33:\n        /* \"contracts/BeggingContract.sol\":3045:3075  address[3] memory topAddresses */\n      tag_78\n      tag_79\n      jump\t// in\n    tag_78:\n        /* \"contracts/BeggingContract.sol\":3077:3105  uint256[3] memory topAmounts */\n      tag_80\n      tag_81\n      jump\t// in\n    tag_80:\n        /* \"contracts/BeggingContract.sol\":3151:3160  uint256 i */\n      0x00\n        /* \"contracts/BeggingContract.sol\":3163:3164  0 */\n      0x00\n        /* \"contracts/BeggingContract.sol\":3151:3164  uint256 i = 0 */\n      swap1\n      pop\n        /* \"contracts/BeggingContract.sol\":3146:3265  for (uint256 i = 0; i < 3; i++) {... */\n    tag_83:\n        /* \"contracts/BeggingContract.sol\":3170:3171  3 */\n      0x03\n        /* \"contracts/BeggingContract.sol\":3166:3167  i */\n      dup2\n        /* \"contracts/BeggingContract.sol\":3166:3171  i < 3 */\n      lt\n        /* \"contracts/BeggingContract.sol\":3146:3265  for (uint256 i = 0; i < 3; i++) {... */\n      iszero\n      tag_84\n      jumpi\n        /* \"contracts/BeggingContract.sol\":3219:3220  0 */\n      0x00\n        /* \"contracts/BeggingContract.sol\":3193:3205  topAddresses */\n      dup4\n        /* \"contracts/BeggingContract.sol\":3206:3207  i */\n      dup3\n        /* \"contracts/BeggingContract.sol\":3193:3208  topAddresses[i] */\n      0x03\n      dup2\n      lt\n      tag_86\n      jumpi\n      tag_87\n      tag_88\n      jump\t// in\n    tag_87:\n    tag_86:\n      0x20\n      mul\n      add\n        /* \"contracts/BeggingContract.sol\":3193:3221  topAddresses[i] = address(0) */\n      swap1\n      0xffffffffffffffffffffffffffffffffffffffff\n      and\n      swap1\n      dup2\n      0xffffffffffffffffffffffffffffffffffffffff\n      and\n      dup2\n      mstore\n      pop\n      pop\n        /* \"contracts/BeggingContract.sol\":3252:3253  0 */\n      0x00\n        /* \"contracts/BeggingContract.sol\":3236:3246  topAmounts */\n      dup3\n        /* \"contracts/BeggingContract.sol\":3247:3248  i */\n      dup3\n        /* \"contracts/BeggingContract.sol\":3236:3249  topAmounts[i] */\n      0x03\n      dup2\n      lt\n      tag_89\n      jumpi\n      tag_90\n      tag_88\n      jump\t// in\n    tag_90:\n    tag_89:\n      0x20\n      mul\n      add\n        /* \"contracts/BeggingContract.sol\":3236:3253  topAmounts[i] = 0 */\n      dup2\n      dup2\n      mstore\n      pop\n      pop\n        /* \"contracts/BeggingContract.sol\":3173:3176  i++ */\n      dup1\n      dup1\n      0x01\n      add\n      swap2\n      pop\n      pop\n        /* \"contracts/BeggingContract.sol\":3146:3265  for (uint256 i = 0; i < 3; i++) {... */\n      jump(tag_83)\n    tag_84:\n      pop\n        /* \"contracts/BeggingContract.sol\":3331:3340  uint256 i */\n      0x00\n        /* \"contracts/BeggingContract.sol\":3343:3344  0 */\n      0x00\n        /* \"contracts/BeggingContract.sol\":3331:3344  uint256 i = 0 */\n      swap1\n      pop\n        /* \"contracts/BeggingContract.sol\":3326:4340  for (uint256 i = 0; i < allDonors.length; i++) {... */\n    tag_91:\n        /* \"contracts/BeggingContract.sol\":3350:3359  allDonors */\n      0x05\n        /* \"contracts/BeggingContract.sol\":3350:3366  allDonors.length */\n      dup1\n      sload\n      swap1\n      pop\n        /* \"contracts/BeggingContract.sol\":3346:3347  i */\n      dup2\n        /* \"contracts/BeggingContract.sol\":3346:3366  i < allDonors.length */\n      lt\n        /* \"contracts/BeggingContract.sol\":3326:4340  for (uint256 i = 0; i < allDonors.length; i++) {... */\n      iszero\n      tag_92\n      jumpi\n        /* \"contracts/BeggingContract.sol\":3388:3410  address currentAddress */\n      0x00\n        /* \"contracts/BeggingContract.sol\":3413:3422  allDonors */\n      0x05\n        /* \"contracts/BeggingContract.sol\":3423:3424  i */\n      dup3\n        /* \"contracts/BeggingContract.sol\":3413:3425  allDonors[i] */\n      dup2\n      sload\n      dup2\n      lt\n      tag_94\n      jumpi\n      tag_95\n      tag_88\n      jump\t// in\n    tag_95:\n    tag_94:\n      swap1\n      0x00\n      mstore\n      keccak256(0x00, 0x20)\n      swap1\n      0x02\n      mul\n      add\n        /* \"contracts/BeggingContract.sol\":3413:3438  allDonors[i].donorAddress */\n      0x00\n      add\n      0x00\n      swap1\n      sload\n      swap1\n      0x0100\n      exp\n      swap1\n      div\n      0xffffffffffffffffffffffffffffffffffffffff\n      and\n        /* \"contracts/BeggingContract.sol\":3388:3438  address currentAddress = allDonors[i].donorAddress */\n      swap1\n      pop\n        /* \"contracts/BeggingContract.sol\":3453:3474  uint256 currentAmount */\n      0x00\n        /* \"contracts/BeggingContract.sol\":3477:3486  allDonors */\n      0x05\n        /* \"contracts/BeggingContract.sol\":3487:3488  i */\n      dup4\n        /* \"contracts/BeggingContract.sol\":3477:3489  allDonors[i] */\n      dup2\n      sload\n      dup2\n      lt\n      tag_97\n      jumpi\n      tag_98\n      tag_88\n      jump\t// in\n    tag_98:\n    tag_97:\n      swap1\n      0x00\n      mstore\n      keccak256(0x00, 0x20)\n      swap1\n      0x02\n      mul\n      add\n        /* \"contracts/BeggingContract.sol\":3477:3496  allDonors[i].amount */\n      0x01\n      add\n      sload\n        /* \"contracts/BeggingContract.sol\":3453:3496  uint256 currentAmount = allDonors[i].amount */\n      swap1\n      pop\n        /* \"contracts/BeggingContract.sol\":3587:3597  topAmounts */\n      dup4\n        /* \"contracts/BeggingContract.sol\":3598:3599  0 */\n      0x00\n        /* \"contracts/BeggingContract.sol\":3587:3600  topAmounts[0] */\n      0x03\n      dup2\n      lt\n      tag_100\n      jumpi\n      tag_101\n      tag_88\n      jump\t// in\n    tag_101:\n    tag_100:\n      0x20\n      mul\n      add\n      mload\n        /* \"contracts/BeggingContract.sol\":3571:3584  currentAmount */\n      dup2\n        /* \"contracts/BeggingContract.sol\":3571:3600  currentAmount > topAmounts[0] */\n      gt\n        /* \"contracts/BeggingContract.sol\":3567:4329  if (currentAmount > topAmounts[0]) {... */\n      iszero\n      tag_102\n      jumpi\n        /* \"contracts/BeggingContract.sol\":3637:3647  topAmounts */\n      dup4\n        /* \"contracts/BeggingContract.sol\":3648:3649  1 */\n      0x01\n        /* \"contracts/BeggingContract.sol\":3637:3650  topAmounts[1] */\n      0x03\n      dup2\n      lt\n      tag_103\n      jumpi\n      tag_104\n      tag_88\n      jump\t// in\n    tag_104:\n    tag_103:\n      0x20\n      mul\n      add\n      mload\n        /* \"contracts/BeggingContract.sol\":3621:3631  topAmounts */\n      dup5\n        /* \"contracts/BeggingContract.sol\":3632:3633  2 */\n      0x02\n        /* \"contracts/BeggingContract.sol\":3621:3634  topAmounts[2] */\n      0x03\n      dup2\n      lt\n      tag_105\n      jumpi\n      tag_106\n      tag_88\n      jump\t// in\n    tag_106:\n    tag_105:\n      0x20\n      mul\n      add\n        /* \"contracts/BeggingContract.sol\":3621:3650  topAmounts[2] = topAmounts[1] */\n      dup2\n      dup2\n      mstore\n      pop\n      pop\n        /* \"contracts/BeggingContract.sol\":3687:3699  topAddresses */\n      dup5\n        /* \"contracts/BeggingContract.sol\":3700:3701  1 */\n      0x01\n        /* \"contracts/BeggingContract.sol\":3687:3702  topAddresses[1] */\n      0x03\n      dup2\n      lt\n      tag_107\n      jumpi\n      tag_108\n      tag_88\n      jump\t// in\n    tag_108:\n    tag_107:\n      0x20\n      mul\n      add\n      mload\n        /* \"contracts/BeggingContract.sol\":3669:3681  topAddresses */\n      dup6\n        /* \"contracts/BeggingContract.sol\":3682:3683  2 */\n      0x02\n        /* \"contracts/BeggingContract.sol\":3669:3684  topAddresses[2] */\n      0x03\n      dup2\n      lt\n      tag_109\n      jumpi\n      tag_110\n      tag_88\n      jump\t// in\n    tag_110:\n    tag_109:\n      0x20\n      mul\n      add\n        /* \"contracts/BeggingContract.sol\":3669:3702  topAddresses[2] = topAddresses[1] */\n      swap1\n      0xffffffffffffffffffffffffffffffffffffffff\n      and\n      swap1\n      dup2\n      0xffffffffffffffffffffffffffffffffffffffff\n      and\n      dup2\n      mstore\n      pop\n      pop\n        /* \"contracts/BeggingContract.sol\":3737:3747  topAmounts */\n      dup4\n        /* \"contracts/BeggingContract.sol\":3748:3749  0 */\n      0x00\n        /* \"contracts/BeggingContract.sol\":3737:3750  topAmounts[0] */\n      0x03\n      dup2\n      lt\n      tag_111\n      jumpi\n      tag_112\n      tag_88\n      jump\t// in\n    tag_112:\n    tag_111:\n      0x20\n      mul\n      add\n      mload\n        /* \"contracts/BeggingContract.sol\":3721:3731  topAmounts */\n      dup5\n        /* \"contracts/BeggingContract.sol\":3732:3733  1 */\n      0x01\n        /* \"contracts/BeggingContract.sol\":3721:3734  topAmounts[1] */\n      0x03\n      dup2\n      lt\n      tag_113\n      jumpi\n      tag_114\n      tag_88\n      jump\t// in\n    tag_114:\n    tag_113:\n      0x20\n      mul\n      add\n        /* \"contracts/BeggingContract.sol\":3721:3750  topAmounts[1] = topAmounts[0] */\n      dup2\n      dup2\n      mstore\n      pop\n      pop\n        /* \"contracts/BeggingContract.sol\":3787:3799  topAddresses */\n      dup5\n        /* \"contracts/BeggingContract.sol\":3800:3801  0 */\n      0x00\n        /* \"contracts/BeggingContract.sol\":3787:3802  topAddresses[0] */\n      0x03\n      dup2\n      lt\n      tag_115\n      jumpi\n      tag_116\n      tag_88\n      jump\t// in\n    tag_116:\n    tag_115:\n      0x20\n      mul\n      add\n      mload\n        /* \"contracts/BeggingContract.sol\":3769:3781  topAddresses */\n      dup6\n        /* \"contracts/BeggingContract.sol\":3782:3783  1 */\n      0x01\n        /* \"contracts/BeggingContract.sol\":3769:3784  topAddresses[1] */\n      0x03\n      dup2\n      lt\n      tag_117\n      jumpi\n      tag_118\n      tag_88\n      jump\t// in\n    tag_118:\n    tag_117:\n      0x20\n      mul\n      add\n        /* \"contracts/BeggingContract.sol\":3769:3802  topAddresses[1] = topAddresses[0] */\n      swap1\n      0xffffffffffffffffffffffffffffffffffffffff\n      and\n      swap1\n      dup2\n      0xffffffffffffffffffffffffffffffffffffffff\n      and\n      dup2\n      mstore\n      pop\n      pop\n        /* \"contracts/BeggingContract.sol\":3837:3850  currentAmount */\n      dup1\n        /* \"contracts/BeggingContract.sol\":3821:3831  topAmounts */\n      dup5\n        /* \"contracts/BeggingContract.sol\":3832:3833  0 */\n      0x00\n        /* \"contracts/BeggingContract.sol\":3821:3834  topAmounts[0] */\n      0x03\n      dup2\n      lt\n      tag_119\n      jumpi\n      tag_120\n      tag_88\n      jump\t// in\n    tag_120:\n    tag_119:\n      0x20\n      mul\n      add\n        /* \"contracts/BeggingContract.sol\":3821:3850  topAmounts[0] = currentAmount */\n      dup2\n      dup2\n      mstore\n      pop\n      pop\n        /* \"contracts/BeggingContract.sol\":3887:3901  currentAddress */\n      dup2\n        /* \"contracts/BeggingContract.sol\":3869:3881  topAddresses */\n      dup6\n        /* \"contracts/BeggingContract.sol\":3882:3883  0 */\n      0x00\n        /* \"contracts/BeggingContract.sol\":3869:3884  topAddresses[0] */\n      0x03\n      dup2\n      lt\n      tag_121\n      jumpi\n      tag_122\n      tag_88\n      jump\t// in\n    tag_122:\n    tag_121:\n      0x20\n      mul\n      add\n        /* \"contracts/BeggingContract.sol\":3869:3901  topAddresses[0] = currentAddress */\n      swap1\n      0xffffffffffffffffffffffffffffffffffffffff\n      and\n      swap1\n      dup2\n      0xffffffffffffffffffffffffffffffffffffffff\n      and\n      dup2\n      mstore\n      pop\n      pop\n        /* \"contracts/BeggingContract.sol\":3567:4329  if (currentAmount > topAmounts[0]) {... */\n      jump(tag_123)\n    tag_102:\n        /* \"contracts/BeggingContract.sol\":3943:3953  topAmounts */\n      dup4\n        /* \"contracts/BeggingContract.sol\":3954:3955  1 */\n      0x01\n        /* \"contracts/BeggingContract.sol\":3943:3956  topAmounts[1] */\n      0x03\n      dup2\n      lt\n      tag_124\n      jumpi\n      tag_125\n      tag_88\n      jump\t// in\n    tag_125:\n    tag_124:\n      0x20\n      mul\n      add\n      mload\n        /* \"contracts/BeggingContract.sol\":3927:3940  currentAmount */\n      dup2\n        /* \"contracts/BeggingContract.sol\":3927:3956  currentAmount > topAmounts[1] */\n      gt\n        /* \"contracts/BeggingContract.sol\":3923:4329  if (currentAmount > topAmounts[1]) {... */\n      iszero\n      tag_126\n      jumpi\n        /* \"contracts/BeggingContract.sol\":3993:4003  topAmounts */\n      dup4\n        /* \"contracts/BeggingContract.sol\":4004:4005  1 */\n      0x01\n        /* \"contracts/BeggingContract.sol\":3993:4006  topAmounts[1] */\n      0x03\n      dup2\n      lt\n      tag_127\n      jumpi\n      tag_128\n      tag_88\n      jump\t// in\n    tag_128:\n    tag_127:\n      0x20\n      mul\n      add\n      mload\n        /* \"contracts/BeggingContract.sol\":3977:3987  topAmounts */\n      dup5\n        /* \"contracts/BeggingContract.sol\":3988:3989  2 */\n      0x02\n        /* \"contracts/BeggingContract.sol\":3977:3990  topAmounts[2] */\n      0x03\n      dup2\n      lt\n      tag_129\n      jumpi\n      tag_130\n      tag_88\n      jump\t// in\n    tag_130:\n    tag_129:\n      0x20\n      mul\n      add\n        /* \"contracts/BeggingContract.sol\":3977:4006  topAmounts[2] = topAmounts[1] */\n      dup2\n      dup2\n      mstore\n      pop\n      pop\n        /* \"contracts/BeggingContract.sol\":4043:4055  topAddresses */\n      dup5\n        /* \"contracts/BeggingContract.sol\":4056:4057  1 */\n      0x01\n        /* \"contracts/BeggingContract.sol\":4043:4058  topAddresses[1] */\n      0x03\n      dup2\n      lt\n      tag_131\n      jumpi\n      tag_132\n      tag_88\n      jump\t// in\n    tag_132:\n    tag_131:\n      0x20\n      mul\n      add\n      mload\n        /* \"contracts/BeggingContract.sol\":4025:4037  topAddresses */\n      dup6\n        /* \"contracts/BeggingContract.sol\":4038:4039  2 */\n      0x02\n        /* \"contracts/BeggingContract.sol\":4025:4040  topAddresses[2] */\n      0x03\n      dup2\n      lt\n      tag_133\n      jumpi\n      tag_134\n      tag_88\n      jump\t// in\n    tag_134:\n    tag_133:\n      0x20\n      mul\n      add\n        /* \"contracts/BeggingContract.sol\":4025:4058  topAddresses[2] = topAddresses[1] */\n      swap1\n      0xffffffffffffffffffffffffffffffffffffffff\n      and\n      swap1\n      dup2\n      0xffffffffffffffffffffffffffffffffffffffff\n      and\n      dup2\n      mstore\n      pop\n      pop\n        /* \"contracts/BeggingContract.sol\":4093:4106  currentAmount */\n      dup1\n        /* \"contracts/BeggingContract.sol\":4077:4087  topAmounts */\n      dup5\n        /* \"contracts/BeggingContract.sol\":4088:4089  1 */\n      0x01\n        /* \"contracts/BeggingContract.sol\":4077:4090  topAmounts[1] */\n      0x03\n      dup2\n      lt\n      tag_135\n      jumpi\n      tag_136\n      tag_88\n      jump\t// in\n    tag_136:\n    tag_135:\n      0x20\n      mul\n      add\n        /* \"contracts/BeggingContract.sol\":4077:4106  topAmounts[1] = currentAmount */\n      dup2\n      dup2\n      mstore\n      pop\n      pop\n        /* \"contracts/BeggingContract.sol\":4143:4157  currentAddress */\n      dup2\n        /* \"contracts/BeggingContract.sol\":4125:4137  topAddresses */\n      dup6\n        /* \"contracts/BeggingContract.sol\":4138:4139  1 */\n      0x01\n        /* \"contracts/BeggingContract.sol\":4125:4140  topAddresses[1] */\n      0x03\n      dup2\n      lt\n      tag_137\n      jumpi\n      tag_138\n      tag_88\n      jump\t// in\n    tag_138:\n    tag_137:\n      0x20\n      mul\n      add\n        /* \"contracts/BeggingContract.sol\":4125:4157  topAddresses[1] = currentAddress */\n      swap1\n      0xffffffffffffffffffffffffffffffffffffffff\n      and\n      swap1\n      dup2\n      0xffffffffffffffffffffffffffffffffffffffff\n      and\n      dup2\n      mstore\n      pop\n      pop\n        /* \"contracts/BeggingContract.sol\":3923:4329  if (currentAmount > topAmounts[1]) {... */\n      jump(tag_139)\n    tag_126:\n        /* \"contracts/BeggingContract.sol\":4199:4209  topAmounts */\n      dup4\n        /* \"contracts/BeggingContract.sol\":4210:4211  2 */\n      0x02\n        /* \"contracts/BeggingContract.sol\":4199:4212  topAmounts[2] */\n      0x03\n      dup2\n      lt\n      tag_140\n      jumpi\n      tag_141\n      tag_88\n      jump\t// in\n    tag_141:\n    tag_140:\n      0x20\n      mul\n      add\n      mload\n        /* \"contracts/BeggingContract.sol\":4183:4196  currentAmount */\n      dup2\n        /* \"contracts/BeggingContract.sol\":4183:4212  currentAmount > topAmounts[2] */\n      gt\n        /* \"contracts/BeggingContract.sol\":4179:4329  if (currentAmount > topAmounts[2]) {... */\n      iszero\n      tag_142\n      jumpi\n        /* \"contracts/BeggingContract.sol\":4249:4262  currentAmount */\n      dup1\n        /* \"contracts/BeggingContract.sol\":4233:4243  topAmounts */\n      dup5\n        /* \"contracts/BeggingContract.sol\":4244:4245  2 */\n      0x02\n        /* \"contracts/BeggingContract.sol\":4233:4246  topAmounts[2] */\n      0x03\n      dup2\n      lt\n      tag_143\n      jumpi\n      tag_144\n      tag_88\n      jump\t// in\n    tag_144:\n    tag_143:\n      0x20\n      mul\n      add\n        /* \"contracts/BeggingContract.sol\":4233:4262  topAmounts[2] = currentAmount */\n      dup2\n      dup2\n      mstore\n      pop\n      pop\n        /* \"contracts/BeggingContract.sol\":4299:4313  currentAddress */\n      dup2\n        /* \"contracts/BeggingContract.sol\":4281:4293  topAddresses */\n      dup6\n        /* \"contracts/BeggingContract.sol\":4294:4295  2 */\n      0x02\n        /* \"contracts/BeggingContract.sol\":4281:4296  topAddresses[2] */\n      0x03\n      dup2\n      lt\n      tag_145\n      jumpi\n      tag_146\n      tag_88\n      jump\t// in\n    tag_146:\n    tag_145:\n      0x20\n      mul\n      add\n        /* \"contracts/BeggingContract.sol\":4281:4313  topAddresses[2] = currentAddress */\n      swap1\n      0xffffffffffffffffffffffffffffffffffffffff\n      and\n      swap1\n      dup2\n      0xffffffffffffffffffffffffffffffffffffffff\n      and\n      dup2\n      mstore\n      pop\n      pop\n        /* \"contracts/BeggingContract.sol\":4179:4329  if (currentAmount > topAmounts[2]) {... */\n    tag_142:\n        /* \"contracts/BeggingContract.sol\":3923:4329  if (currentAmount > topAmounts[1]) {... */\n    tag_139:\n        /* \"contracts/BeggingContract.sol\":3567:4329  if (currentAmount > topAmounts[0]) {... */\n    tag_123:\n        /* \"contracts/BeggingContract.sol\":3373:4340  {... */\n      pop\n      pop\n        /* \"contracts/BeggingContract.sol\":3368:3371  i++ */\n      dup1\n      dup1\n      0x01\n      add\n      swap2\n      pop\n      pop\n        /* \"contracts/BeggingContract.sol\":3326:4340  for (uint256 i = 0; i < allDonors.length; i++) {... */\n      jump(tag_91)\n    tag_92:\n      pop\n        /* \"contracts/BeggingContract.sol\":2997:4401  function getTop3Donors() external view returns (address[3] memory topAddresses, uint256[3] memory topAmounts) {... */\n      swap1\n      swap2\n      jump\t// out\n        /* \"contracts/BeggingContract.sol\":2609:2939  function withdraw() external onlyOwner {... */\n    tag_38:\n        /* \"contracts/BeggingContract.sol\":916:921  owner */\n      0x00\n      0x00\n      swap1\n      sload\n      swap1\n      0x0100\n      exp\n      swap1\n      div\n      0xffffffffffffffffffffffffffffffffffffffff\n      and\n        /* \"contracts/BeggingContract.sol\":902:921  msg.sender == owner */\n      0xffffffffffffffffffffffffffffffffffffffff\n      and\n        /* \"contracts/BeggingContract.sol\":902:912  msg.sender */\n      caller\n        /* \"contracts/BeggingContract.sol\":902:921  msg.sender == owner */\n      0xffffffffffffffffffffffffffffffffffffffff\n      and\n      eq\n        /* \"contracts/BeggingContract.sol\":894:959  require(msg.sender == owner, \"Only owner can call this function\") */\n      tag_148\n      jumpi\n      mload(0x40)\n      0x08c379a000000000000000000000000000000000000000000000000000000000\n      dup2\n      mstore\n      0x04\n      add\n      tag_149\n      swap1\n      tag_150\n      jump\t// in\n    tag_149:\n      mload(0x40)\n      dup1\n      swap2\n      sub\n      swap1\n      revert\n    tag_148:\n        /* \"contracts/BeggingContract.sol\":2659:2674  uint256 balance */\n      0x00\n        /* \"contracts/BeggingContract.sol\":2677:2698  address(this).balance */\n      selfbalance\n        /* \"contracts/BeggingContract.sol\":2659:2698  uint256 balance = address(this).balance */\n      swap1\n      pop\n        /* \"contracts/BeggingContract.sol\":2727:2728  0 */\n      0x00\n        /* \"contracts/BeggingContract.sol\":2717:2724  balance */\n      dup2\n        /* \"contracts/BeggingContract.sol\":2717:2728  balance > 0 */\n      gt\n        /* \"contracts/BeggingContract.sol\":2709:2753  require(balance > 0, \"No funds to withdraw\") */\n      tag_152\n      jumpi\n      mload(0x40)\n      0x08c379a000000000000000000000000000000000000000000000000000000000\n      dup2\n      mstore\n      0x04\n      add\n      tag_153\n      swap1\n      tag_154\n      jump\t// in\n    tag_153:\n      mload(0x40)\n      dup1\n      swap2\n      sub\n      swap1\n      revert\n    tag_152:\n        /* \"contracts/BeggingContract.sol\":2824:2829  owner */\n      0x00\n      0x00\n      swap1\n      sload\n      swap1\n      0x0100\n      exp\n      swap1\n      div\n      0xffffffffffffffffffffffffffffffffffffffff\n      and\n        /* \"contracts/BeggingContract.sol\":2816:2839  payable(owner).transfer */\n      0xffffffffffffffffffffffffffffffffffffffff\n      and\n        /* \"contracts/BeggingContract.sol\":2816:2848  payable(owner).transfer(balance) */\n      0x08fc\n        /* \"contracts/BeggingContract.sol\":2840:2847  balance */\n      dup3\n        /* \"contracts/BeggingContract.sol\":2816:2848  payable(owner).transfer(balance) */\n      swap1\n      dup2\n      iszero\n      mul\n      swap1\n      mload(0x40)\n      0x00\n      mload(0x40)\n      dup1\n      dup4\n      sub\n      dup2\n      dup6\n      dup9\n      dup9\n      call\n      swap4\n      pop\n      pop\n      pop\n      pop\n      iszero\n      dup1\n      iszero\n      tag_156\n      jumpi\n      returndatacopy(0x00, 0x00, returndatasize)\n      revert(0x00, returndatasize)\n    tag_156:\n      pop\n        /* \"contracts/BeggingContract.sol\":2916:2921  owner */\n      0x00\n      0x00\n      swap1\n      sload\n      swap1\n      0x0100\n      exp\n      swap1\n      div\n      0xffffffffffffffffffffffffffffffffffffffff\n      and\n        /* \"contracts/BeggingContract.sol\":2905:2931  Withdrawal(owner, balance) */\n      0xffffffffffffffffffffffffffffffffffffffff\n      and\n      0x7fcf532c15f0a6db0bd6d0e038bea71d30d808c7d98cb3bf7268a95bf5081b65\n        /* \"contracts/BeggingContract.sol\":2923:2930  balance */\n      dup3\n        /* \"contracts/BeggingContract.sol\":2905:2931  Withdrawal(owner, balance) */\n      mload(0x40)\n      tag_157\n      swap2\n      swap1\n      tag_30\n      jump\t// in\n    tag_157:\n      mload(0x40)\n      dup1\n      swap2\n      sub\n      swap1\n      log2\n        /* \"contracts/BeggingContract.sol\":2648:2939  {... */\n      pop\n        /* \"contracts/BeggingContract.sol\":2609:2939  function withdraw() external onlyOwner {... */\n      jump\t// out\n        /* \"contracts/BeggingContract.sol\":2294:2404  function getDonation(address donor) external view returns (uint256) {... */\n    tag_43:\n        /* \"contracts/BeggingContract.sol\":2353:2360  uint256 */\n      0x00\n        /* \"contracts/BeggingContract.sol\":2380:2389  donations */\n      0x01\n        /* \"contracts/BeggingContract.sol\":2380:2396  donations[donor] */\n      0x00\n        /* \"contracts/BeggingContract.sol\":2390:2395  donor */\n      dup4\n        /* \"contracts/BeggingContract.sol\":2380:2396  donations[donor] */\n      0xffffffffffffffffffffffffffffffffffffffff\n      and\n      0xffffffffffffffffffffffffffffffffffffffff\n      and\n      dup2\n      mstore\n      0x20\n      add\n      swap1\n      dup2\n      mstore\n      0x20\n      add\n      0x00\n      keccak256\n      sload\n        /* \"contracts/BeggingContract.sol\":2373:2396  return donations[donor] */\n      swap1\n      pop\n        /* \"contracts/BeggingContract.sol\":2294:2404  function getDonation(address donor) external view returns (uint256) {... */\n      swap2\n      swap1\n      pop\n      jump\t// out\n        /* \"contracts/BeggingContract.sol\":2443:2552  function getContractBalance() external view returns (uint256) {... */\n    tag_47:\n        /* \"contracts/BeggingContract.sol\":2496:2503  uint256 */\n      0x00\n        /* \"contracts/BeggingContract.sol\":2523:2544  address(this).balance */\n      selfbalance\n        /* \"contracts/BeggingContract.sol\":2516:2544  return address(this).balance */\n      swap1\n      pop\n        /* \"contracts/BeggingContract.sol\":2443:2552  function getContractBalance() external view returns (uint256) {... */\n      swap1\n      jump\t// out\n        /* \"contracts/BeggingContract.sol\":357:389  uint256 public donationStartTime */\n    tag_51:\n      sload(0x03)\n      dup2\n      jump\t// out\n        /* \"contracts/BeggingContract.sol\":117:137  address public owner */\n    tag_55:\n      0x00\n      0x00\n      swap1\n      sload\n      swap1\n      0x0100\n      exp\n      swap1\n      div\n      0xffffffffffffffffffffffffffffffffffffffff\n      and\n      dup2\n      jump\t// out\n        /* \"contracts/BeggingContract.sol\":4446:4719  function getDonationPeriod() external view returns (uint256 startTime, uint256 endTime, bool isActive) {... */\n    tag_60:\n        /* \"contracts/BeggingContract.sol\":4498:4515  uint256 startTime */\n      0x00\n        /* \"contracts/BeggingContract.sol\":4517:4532  uint256 endTime */\n      0x00\n        /* \"contracts/BeggingContract.sol\":4534:4547  bool isActive */\n      0x00\n        /* \"contracts/BeggingContract.sol\":4591:4608  donationStartTime */\n      sload(0x03)\n        /* \"contracts/BeggingContract.sol\":4572:4587  block.timestamp */\n      timestamp\n        /* \"contracts/BeggingContract.sol\":4572:4608  block.timestamp >= donationStartTime */\n      lt\n      iszero\n        /* \"contracts/BeggingContract.sol\":4572:4646  block.timestamp >= donationStartTime && block.timestamp <= donationEndTime */\n      dup1\n      iszero\n      tag_161\n      jumpi\n      pop\n        /* \"contracts/BeggingContract.sol\":4631:4646  donationEndTime */\n      sload(0x04)\n        /* \"contracts/BeggingContract.sol\":4612:4627  block.timestamp */\n      timestamp\n        /* \"contracts/BeggingContract.sol\":4612:4646  block.timestamp <= donationEndTime */\n      gt\n      iszero\n        /* \"contracts/BeggingContract.sol\":4572:4646  block.timestamp >= donationStartTime && block.timestamp <= donationEndTime */\n    tag_161:\n        /* \"contracts/BeggingContract.sol\":4560:4647  isActive = (block.timestamp >= donationStartTime && block.timestamp <= donationEndTime) */\n      swap1\n      pop\n        /* \"contracts/BeggingContract.sol\":4666:4683  donationStartTime */\n      sload(0x03)\n        /* \"contracts/BeggingContract.sol\":4685:4700  donationEndTime */\n      sload(0x04)\n        /* \"contracts/BeggingContract.sol\":4658:4711  return (donationStartTime, donationEndTime, isActive) */\n      swap3\n      pop\n      swap3\n      pop\n        /* \"contracts/BeggingContract.sol\":4446:4719  function getDonationPeriod() external view returns (uint256 startTime, uint256 endTime, bool isActive) {... */\n      swap1\n      swap2\n      swap3\n      jump\t// out\n        /* \"contracts/BeggingContract.sol\":192:236  mapping(address => uint256) public donations */\n    tag_66:\n      mstore(0x20, 0x01)\n      dup1\n      0x00\n      mstore\n      keccak256(0x00, 0x40)\n      0x00\n      swap2\n      pop\n      swap1\n      pop\n      sload\n      dup2\n      jump\t// out\n        /* \"contracts/BeggingContract.sol\":270:299  uint256 public totalDonations */\n    tag_70:\n      sload(0x02)\n      dup2\n      jump\t// out\n        /* \"contracts/BeggingContract.sol\":1280:2240  function donate() external payable {... */\n    tag_73:\n        /* \"contracts/BeggingContract.sol\":1353:1370  donationStartTime */\n      sload(0x03)\n        /* \"contracts/BeggingContract.sol\":1334:1349  block.timestamp */\n      timestamp\n        /* \"contracts/BeggingContract.sol\":1334:1370  block.timestamp >= donationStartTime */\n      lt\n      iszero\n        /* \"contracts/BeggingContract.sol\":1326:1406  require(block.timestamp >= donationStartTime, \"Donation period has not started\") */\n      tag_163\n      jumpi\n      mload(0x40)\n      0x08c379a000000000000000000000000000000000000000000000000000000000\n      dup2\n      mstore\n      0x04\n      add\n      tag_164\n      swap1\n      tag_19\n      jump\t// in\n    tag_164:\n      mload(0x40)\n      dup1\n      swap2\n      sub\n      swap1\n      revert\n    tag_163:\n        /* \"contracts/BeggingContract.sol\":1444:1459  donationEndTime */\n      sload(0x04)\n        /* \"contracts/BeggingContract.sol\":1425:1440  block.timestamp */\n      timestamp\n        /* \"contracts/BeggingContract.sol\":1425:1459  block.timestamp <= donationEndTime */\n      gt\n      iszero\n        /* \"contracts/BeggingContract.sol\":1417:1489  require(block.timestamp <= donationEndTime, \"Donation period has ended\") */\n      tag_165\n      jumpi\n      mload(0x40)\n      0x08c379a000000000000000000000000000000000000000000000000000000000\n      dup2\n      mstore\n      0x04\n      add\n      tag_166\n      swap1\n      tag_22\n      jump\t// in\n    tag_166:\n      mload(0x40)\n      dup1\n      swap2\n      sub\n      swap1\n      revert\n    tag_165:\n        /* \"contracts/BeggingContract.sol\":1520:1521  0 */\n      0x00\n        /* \"contracts/BeggingContract.sol\":1508:1517  msg.value */\n      callvalue\n        /* \"contracts/BeggingContract.sol\":1508:1521  msg.value > 0 */\n      gt\n        /* \"contracts/BeggingContract.sol\":1500:1564  require(msg.value > 0, \"Donation amount must be greater than 0\") */\n      tag_167\n      jumpi\n      mload(0x40)\n      0x08c379a000000000000000000000000000000000000000000000000000000000\n      dup2\n      mstore\n      0x04\n      add\n      tag_168\n      swap1\n      tag_25\n      jump\t// in\n    tag_168:\n      mload(0x40)\n      dup1\n      swap2\n      sub\n      swap1\n      revert\n    tag_167:\n        /* \"contracts/BeggingContract.sol\":1641:1650  msg.value */\n      callvalue\n        /* \"contracts/BeggingContract.sol\":1616:1625  donations */\n      0x01\n        /* \"contracts/BeggingContract.sol\":1616:1637  donations[msg.sender] */\n      0x00\n        /* \"contracts/BeggingContract.sol\":1626:1636  msg.sender */\n      caller\n        /* \"contracts/BeggingContract.sol\":1616:1637  donations[msg.sender] */\n      0xffffffffffffffffffffffffffffffffffffffff\n      and\n      0xffffffffffffffffffffffffffffffffffffffff\n      and\n      dup2\n      mstore\n      0x20\n      add\n      swap1\n      dup2\n      mstore\n      0x20\n      add\n      0x00\n      keccak256\n      0x00\n        /* \"contracts/BeggingContract.sol\":1616:1650  donations[msg.sender] += msg.value */\n      dup3\n      dup3\n      sload\n      tag_169\n      swap2\n      swap1\n      tag_27\n      jump\t// in\n    tag_169:\n      swap3\n      pop\n      pop\n      dup2\n      swap1\n      sstore\n      pop\n        /* \"contracts/BeggingContract.sol\":1679:1688  msg.value */\n      callvalue\n        /* \"contracts/BeggingContract.sol\":1661:1675  totalDonations */\n      0x02\n      0x00\n        /* \"contracts/BeggingContract.sol\":1661:1688  totalDonations += msg.value */\n      dup3\n      dup3\n      sload\n      tag_170\n      swap2\n      swap1\n      tag_27\n      jump\t// in\n    tag_170:\n      swap3\n      pop\n      pop\n      dup2\n      swap1\n      sstore\n      pop\n        /* \"contracts/BeggingContract.sol\":1755:1771  bool donorExists */\n      0x00\n        /* \"contracts/BeggingContract.sol\":1774:1779  false */\n      0x00\n        /* \"contracts/BeggingContract.sol\":1755:1779  bool donorExists = false */\n      swap1\n      pop\n        /* \"contracts/BeggingContract.sol\":1795:1804  uint256 i */\n      0x00\n        /* \"contracts/BeggingContract.sol\":1807:1808  0 */\n      0x00\n        /* \"contracts/BeggingContract.sol\":1795:1808  uint256 i = 0 */\n      swap1\n      pop\n        /* \"contracts/BeggingContract.sol\":1790:2036  for (uint256 i = 0; i < allDonors.length; i++) {... */\n    tag_171:\n        /* \"contracts/BeggingContract.sol\":1814:1823  allDonors */\n      0x05\n        /* \"contracts/BeggingContract.sol\":1814:1830  allDonors.length */\n      dup1\n      sload\n      swap1\n      pop\n        /* \"contracts/BeggingContract.sol\":1810:1811  i */\n      dup2\n        /* \"contracts/BeggingContract.sol\":1810:1830  i < allDonors.length */\n      lt\n        /* \"contracts/BeggingContract.sol\":1790:2036  for (uint256 i = 0; i < allDonors.length; i++) {... */\n      iszero\n      tag_172\n      jumpi\n        /* \"contracts/BeggingContract.sol\":1885:1895  msg.sender */\n      caller\n        /* \"contracts/BeggingContract.sol\":1856:1895  allDonors[i].donorAddress == msg.sender */\n      0xffffffffffffffffffffffffffffffffffffffff\n      and\n        /* \"contracts/BeggingContract.sol\":1856:1865  allDonors */\n      0x05\n        /* \"contracts/BeggingContract.sol\":1866:1867  i */\n      dup3\n        /* \"contracts/BeggingContract.sol\":1856:1868  allDonors[i] */\n      dup2\n      sload\n      dup2\n      lt\n      tag_174\n      jumpi\n      tag_175\n      tag_88\n      jump\t// in\n    tag_175:\n    tag_174:\n      swap1\n      0x00\n      mstore\n      keccak256(0x00, 0x20)\n      swap1\n      0x02\n      mul\n      add\n        /* \"contracts/BeggingContract.sol\":1856:1881  allDonors[i].donorAddress */\n      0x00\n      add\n      0x00\n      swap1\n      sload\n      swap1\n      0x0100\n      exp\n      swap1\n      div\n      0xffffffffffffffffffffffffffffffffffffffff\n      and\n        /* \"contracts/BeggingContract.sol\":1856:1895  allDonors[i].donorAddress == msg.sender */\n      0xffffffffffffffffffffffffffffffffffffffff\n      and\n      sub\n        /* \"contracts/BeggingContract.sol\":1852:2025  if (allDonors[i].donorAddress == msg.sender) {... */\n      tag_177\n      jumpi\n        /* \"contracts/BeggingContract.sol\":1939:1948  msg.value */\n      callvalue\n        /* \"contracts/BeggingContract.sol\":1916:1925  allDonors */\n      0x05\n        /* \"contracts/BeggingContract.sol\":1926:1927  i */\n      dup3\n        /* \"contracts/BeggingContract.sol\":1916:1928  allDonors[i] */\n      dup2\n      sload\n      dup2\n      lt\n      tag_178\n      jumpi\n      tag_179\n      tag_88\n      jump\t// in\n    tag_179:\n    tag_178:\n      swap1\n      0x00\n      mstore\n      keccak256(0x00, 0x20)\n      swap1\n      0x02\n      mul\n      add\n        /* \"contracts/BeggingContract.sol\":1916:1935  allDonors[i].amount */\n      0x01\n      add\n      0x00\n        /* \"contracts/BeggingContract.sol\":1916:1948  allDonors[i].amount += msg.value */\n      dup3\n      dup3\n      sload\n      tag_181\n      swap2\n      swap1\n      tag_27\n      jump\t// in\n    tag_181:\n      swap3\n      pop\n      pop\n      dup2\n      swap1\n      sstore\n      pop\n        /* \"contracts/BeggingContract.sol\":1981:1985  true */\n      0x01\n        /* \"contracts/BeggingContract.sol\":1967:1985  donorExists = true */\n      swap2\n      pop\n        /* \"contracts/BeggingContract.sol\":2004:2009  break */\n      jump(tag_172)\n        /* \"contracts/BeggingContract.sol\":1852:2025  if (allDonors[i].donorAddress == msg.sender) {... */\n    tag_177:\n        /* \"contracts/BeggingContract.sol\":1832:1835  i++ */\n      dup1\n      dup1\n      0x01\n      add\n      swap2\n      pop\n      pop\n        /* \"contracts/BeggingContract.sol\":1790:2036  for (uint256 i = 0; i < allDonors.length; i++) {... */\n      jump(tag_171)\n    tag_172:\n      pop\n        /* \"contracts/BeggingContract.sol\":2061:2072  donorExists */\n      dup1\n        /* \"contracts/BeggingContract.sol\":2056:2145  if (!donorExists) {... */\n      tag_182\n      jumpi\n        /* \"contracts/BeggingContract.sol\":2089:2098  allDonors */\n      0x05\n        /* \"contracts/BeggingContract.sol\":2104:2132  Donor(msg.sender, msg.value) */\n      mload(0x40)\n      dup1\n      0x40\n      add\n      0x40\n      mstore\n      dup1\n        /* \"contracts/BeggingContract.sol\":2110:2120  msg.sender */\n      caller\n        /* \"contracts/BeggingContract.sol\":2104:2132  Donor(msg.sender, msg.value) */\n      0xffffffffffffffffffffffffffffffffffffffff\n      and\n      dup2\n      mstore\n      0x20\n      add\n        /* \"contracts/BeggingContract.sol\":2122:2131  msg.value */\n      callvalue\n        /* \"contracts/BeggingContract.sol\":2104:2132  Donor(msg.sender, msg.value) */\n      dup2\n      mstore\n      pop\n        /* \"contracts/BeggingContract.sol\":2089:2133  allDonors.push(Donor(msg.sender, msg.value)) */\n      swap1\n      dup1\n      0x01\n      dup2\n      sload\n      add\n      dup1\n      dup3\n      sstore\n      dup1\n      swap2\n      pop\n      pop\n      0x01\n      swap1\n      sub\n      swap1\n      0x00\n      mstore\n      keccak256(0x00, 0x20)\n      swap1\n      0x02\n      mul\n      add\n      0x00\n      swap1\n      swap2\n      swap1\n      swap2\n      swap1\n      swap2\n      pop\n      0x00\n      dup3\n      add\n      mload\n      dup2\n      0x00\n      add\n      exp(0x0100, 0x00)\n      dup2\n      sload\n      dup2\n      0xffffffffffffffffffffffffffffffffffffffff\n      mul\n      not\n      and\n      swap1\n      dup4\n      0xffffffffffffffffffffffffffffffffffffffff\n      and\n      mul\n      or\n      swap1\n      sstore\n      pop\n      0x20\n      dup3\n      add\n      mload\n      dup2\n      0x01\n      add\n      sstore\n      pop\n      pop\n        /* \"contracts/BeggingContract.sol\":2056:2145  if (!donorExists) {... */\n    tag_182:\n        /* \"contracts/BeggingContract.sol\":2210:2220  msg.sender */\n      caller\n        /* \"contracts/BeggingContract.sol\":2201:2232  Donation(msg.sender, msg.value) */\n      0xffffffffffffffffffffffffffffffffffffffff\n      and\n      0x5d8bc849764969eb1bcc6d0a2f55999d0167c1ccec240a4f39cf664ca9c4148e\n        /* \"contracts/BeggingContract.sol\":2222:2231  msg.value */\n      callvalue\n        /* \"contracts/BeggingContract.sol\":2201:2232  Donation(msg.sender, msg.value) */\n      mload(0x40)\n      tag_184\n      swap2\n      swap1\n      tag_30\n      jump\t// in\n    tag_184:\n      mload(0x40)\n      dup1\n      swap2\n      sub\n      swap1\n      log2\n        /* \"contracts/BeggingContract.sol\":1315:2240  {... */\n      pop\n        /* \"contracts/BeggingContract.sol\":1280:2240  function donate() external payable {... */\n      jump\t// out\n        /* \"contracts/BeggingContract.sol\":396:426  uint256 public donationEndTime */\n    tag_76:\n      sload(0x04)\n      dup2\n      jump\t// out\n    tag_79:\n      mload(0x40)\n      dup1\n      0x60\n      add\n      0x40\n      mstore\n      dup1\n      0x03\n      swap1\n      0x20\n      dup3\n      mul\n      dup1\n      calldatasize\n      dup4\n      calldatacopy\n      dup1\n      dup3\n      add\n      swap2\n      pop\n      pop\n      swap1\n      pop\n      pop\n      swap1\n      jump\t// out\n    tag_81:\n      mload(0x40)\n      dup1\n      0x60\n      add\n      0x40\n      mstore\n      dup1\n      0x03\n      swap1\n      0x20\n      dup3\n      mul\n      dup1\n      calldatasize\n      dup4\n      calldatacopy\n      dup1\n      dup3\n      add\n      swap2\n      pop\n      pop\n      swap1\n      pop\n      pop\n      swap1\n      jump\t// out\n        /* \"#utility.yul\":7:176   */\n    tag_185:\n        /* \"#utility.yul\":91:102   */\n      0x00\n        /* \"#utility.yul\":125:131   */\n      dup3\n        /* \"#utility.yul\":120:123   */\n      dup3\n        /* \"#utility.yul\":113:132   */\n      mstore\n        /* \"#utility.yul\":165:169   */\n      0x20\n        /* \"#utility.yul\":160:163   */\n      dup3\n        /* \"#utility.yul\":156:170   */\n      add\n        /* \"#utility.yul\":141:170   */\n      swap1\n      pop\n        /* \"#utility.yul\":7:176   */\n      swap3\n      swap2\n      pop\n      pop\n      jump\t// out\n        /* \"#utility.yul\":182:363   */\n    tag_186:\n        /* \"#utility.yul\":322:355   */\n      0x446f6e6174696f6e20706572696f6420686173206e6f74207374617274656400\n        /* \"#utility.yul\":318:319   */\n      0x00\n        /* \"#utility.yul\":310:316   */\n      dup3\n        /* \"#utility.yul\":306:320   */\n      add\n        /* \"#utility.yul\":299:356   */\n      mstore\n        /* \"#utility.yul\":182:363   */\n      pop\n      jump\t// out\n        /* \"#utility.yul\":369:735   */\n    tag_187:\n        /* \"#utility.yul\":511:514   */\n      0x00\n        /* \"#utility.yul\":532:599   */\n      tag_227\n        /* \"#utility.yul\":596:598   */\n      0x1f\n        /* \"#utility.yul\":591:594   */\n      dup4\n        /* \"#utility.yul\":532:599   */\n      tag_185\n      jump\t// in\n    tag_227:\n        /* \"#utility.yul\":525:599   */\n      swap2\n      pop\n        /* \"#utility.yul\":608:701   */\n      tag_228\n        /* \"#utility.yul\":697:700   */\n      dup3\n        /* \"#utility.yul\":608:701   */\n      tag_186\n      jump\t// in\n    tag_228:\n        /* \"#utility.yul\":726:728   */\n      0x20\n        /* \"#utility.yul\":721:724   */\n      dup3\n        /* \"#utility.yul\":717:729   */\n      add\n        /* \"#utility.yul\":710:729   */\n      swap1\n      pop\n        /* \"#utility.yul\":369:735   */\n      swap2\n      swap1\n      pop\n      jump\t// out\n        /* \"#utility.yul\":741:1160   */\n    tag_19:\n        /* \"#utility.yul\":907:911   */\n      0x00\n        /* \"#utility.yul\":945:947   */\n      0x20\n        /* \"#utility.yul\":934:943   */\n      dup3\n        /* \"#utility.yul\":930:948   */\n      add\n        /* \"#utility.yul\":922:948   */\n      swap1\n      pop\n        /* \"#utility.yul\":994:1003   */\n      dup2\n        /* \"#utility.yul\":988:992   */\n      dup2\n        /* \"#utility.yul\":984:1004   */\n      sub\n        /* \"#utility.yul\":980:981   */\n      0x00\n        /* \"#utility.yul\":969:978   */\n      dup4\n        /* \"#utility.yul\":965:982   */\n      add\n        /* \"#utility.yul\":958:1005   */\n      mstore\n        /* \"#utility.yul\":1022:1153   */\n      tag_230\n        /* \"#utility.yul\":1148:1152   */\n      dup2\n        /* \"#utility.yul\":1022:1153   */\n      tag_187\n      jump\t// in\n    tag_230:\n        /* \"#utility.yul\":1014:1153   */\n      swap1\n      pop\n        /* \"#utility.yul\":741:1160   */\n      swap2\n      swap1\n      pop\n      jump\t// out\n        /* \"#utility.yul\":1166:1341   */\n    tag_188:\n        /* \"#utility.yul\":1306:1333   */\n      0x446f6e6174696f6e20706572696f642068617320656e64656400000000000000\n        /* \"#utility.yul\":1302:1303   */\n      0x00\n        /* \"#utility.yul\":1294:1300   */\n      dup3\n        /* \"#utility.yul\":1290:1304   */\n      add\n        /* \"#utility.yul\":1283:1334   */\n      mstore\n        /* \"#utility.yul\":1166:1341   */\n      pop\n      jump\t// out\n        /* \"#utility.yul\":1347:1713   */\n    tag_189:\n        /* \"#utility.yul\":1489:1492   */\n      0x00\n        /* \"#utility.yul\":1510:1577   */\n      tag_233\n        /* \"#utility.yul\":1574:1576   */\n      0x19\n        /* \"#utility.yul\":1569:1572   */\n      dup4\n        /* \"#utility.yul\":1510:1577   */\n      tag_185\n      jump\t// in\n    tag_233:\n        /* \"#utility.yul\":1503:1577   */\n      swap2\n      pop\n        /* \"#utility.yul\":1586:1679   */\n      tag_234\n        /* \"#utility.yul\":1675:1678   */\n      dup3\n        /* \"#utility.yul\":1586:1679   */\n      tag_188\n      jump\t// in\n    tag_234:\n        /* \"#utility.yul\":1704:1706   */\n      0x20\n        /* \"#utility.yul\":1699:1702   */\n      dup3\n        /* \"#utility.yul\":1695:1707   */\n      add\n        /* \"#utility.yul\":1688:1707   */\n      swap1\n      pop\n        /* \"#utility.yul\":1347:1713   */\n      swap2\n      swap1\n      pop\n      jump\t// out\n        /* \"#utility.yul\":1719:2138   */\n    tag_22:\n        /* \"#utility.yul\":1885:1889   */\n      0x00\n        /* \"#utility.yul\":1923:1925   */\n      0x20\n        /* \"#utility.yul\":1912:1921   */\n      dup3\n        /* \"#utility.yul\":1908:1926   */\n      add\n        /* \"#utility.yul\":1900:1926   */\n      swap1\n      pop\n        /* \"#utility.yul\":1972:1981   */\n      dup2\n        /* \"#utility.yul\":1966:1970   */\n      dup2\n        /* \"#utility.yul\":1962:1982   */\n      sub\n        /* \"#utility.yul\":1958:1959   */\n      0x00\n        /* \"#utility.yul\":1947:1956   */\n      dup4\n        /* \"#utility.yul\":1943:1960   */\n      add\n        /* \"#utility.yul\":1936:1983   */\n      mstore\n        /* \"#utility.yul\":2000:2131   */\n      tag_236\n        /* \"#utility.yul\":2126:2130   */\n      dup2\n        /* \"#utility.yul\":2000:2131   */\n      tag_189\n      jump\t// in\n    tag_236:\n        /* \"#utility.yul\":1992:2131   */\n      swap1\n      pop\n        /* \"#utility.yul\":1719:2138   */\n      swap2\n      swap1\n      pop\n      jump\t// out\n        /* \"#utility.yul\":2144:2369   */\n    tag_190:\n        /* \"#utility.yul\":2284:2318   */\n      0x446f6e6174696f6e20616d6f756e74206d757374206265206772656174657220\n        /* \"#utility.yul\":2280:2281   */\n      0x00\n        /* \"#utility.yul\":2272:2278   */\n      dup3\n        /* \"#utility.yul\":2268:2282   */\n      add\n        /* \"#utility.yul\":2261:2319   */\n      mstore\n        /* \"#utility.yul\":2353:2361   */\n      0x7468616e20300000000000000000000000000000000000000000000000000000\n        /* \"#utility.yul\":2348:2350   */\n      0x20\n        /* \"#utility.yul\":2340:2346   */\n      dup3\n        /* \"#utility.yul\":2336:2351   */\n      add\n        /* \"#utility.yul\":2329:2362   */\n      mstore\n        /* \"#utility.yul\":2144:2369   */\n      pop\n      jump\t// out\n        /* \"#utility.yul\":2375:2741   */\n    tag_191:\n        /* \"#utility.yul\":2517:2520   */\n      0x00\n        /* \"#utility.yul\":2538:2605   */\n      tag_239\n        /* \"#utility.yul\":2602:2604   */\n      0x26\n        /* \"#utility.yul\":2597:2600   */\n      dup4\n        /* \"#utility.yul\":2538:2605   */\n      tag_185\n      jump\t// in\n    tag_239:\n        /* \"#utility.yul\":2531:2605   */\n      swap2\n      pop\n        /* \"#utility.yul\":2614:2707   */\n      tag_240\n        /* \"#utility.yul\":2703:2706   */\n      dup3\n        /* \"#utility.yul\":2614:2707   */\n      tag_190\n      jump\t// in\n    tag_240:\n        /* \"#utility.yul\":2732:2734   */\n      0x40\n        /* \"#utility.yul\":2727:2730   */\n      dup3\n        /* \"#utility.yul\":2723:2735   */\n      add\n        /* \"#utility.yul\":2716:2735   */\n      swap1\n      pop\n        /* \"#utility.yul\":2375:2741   */\n      swap2\n      swap1\n      pop\n      jump\t// out\n        /* \"#utility.yul\":2747:3166   */\n    tag_25:\n        /* \"#utility.yul\":2913:2917   */\n      0x00\n        /* \"#utility.yul\":2951:2953   */\n      0x20\n        /* \"#utility.yul\":2940:2949   */\n      dup3\n        /* \"#utility.yul\":2936:2954   */\n      add\n        /* \"#utility.yul\":2928:2954   */\n      swap1\n      pop\n        /* \"#utility.yul\":3000:3009   */\n      dup2\n        /* \"#utility.yul\":2994:2998   */\n      dup2\n        /* \"#utility.yul\":2990:3010   */\n      sub\n        /* \"#utility.yul\":2986:2987   */\n      0x00\n        /* \"#utility.yul\":2975:2984   */\n      dup4\n        /* \"#utility.yul\":2971:2988   */\n      add\n        /* \"#utility.yul\":2964:3011   */\n      mstore\n        /* \"#utility.yul\":3028:3159   */\n      tag_242\n        /* \"#utility.yul\":3154:3158   */\n      dup2\n        /* \"#utility.yul\":3028:3159   */\n      tag_191\n      jump\t// in\n    tag_242:\n        /* \"#utility.yul\":3020:3159   */\n      swap1\n      pop\n        /* \"#utility.yul\":2747:3166   */\n      swap2\n      swap1\n      pop\n      jump\t// out\n        /* \"#utility.yul\":3172:3249   */\n    tag_192:\n        /* \"#utility.yul\":3209:3216   */\n      0x00\n        /* \"#utility.yul\":3238:3243   */\n      dup2\n        /* \"#utility.yul\":3227:3243   */\n      swap1\n      pop\n        /* \"#utility.yul\":3172:3249   */\n      swap2\n      swap1\n      pop\n      jump\t// out\n        /* \"#utility.yul\":3255:3435   */\n    tag_193:\n        /* \"#utility.yul\":3303:3380   */\n      0x4e487b7100000000000000000000000000000000000000000000000000000000\n        /* \"#utility.yul\":3300:3301   */\n      0x00\n        /* \"#utility.yul\":3293:3381   */\n      mstore\n        /* \"#utility.yul\":3400:3404   */\n      0x11\n        /* \"#utility.yul\":3397:3398   */\n      0x04\n        /* \"#utility.yul\":3390:3405   */\n      mstore\n        /* \"#utility.yul\":3424:3428   */\n      0x24\n        /* \"#utility.yul\":3421:3422   */\n      0x00\n        /* \"#utility.yul\":3414:3429   */\n      revert\n        /* \"#utility.yul\":3441:3632   */\n    tag_27:\n        /* \"#utility.yul\":3481:3484   */\n      0x00\n        /* \"#utility.yul\":3500:3520   */\n      tag_246\n        /* \"#utility.yul\":3518:3519   */\n      dup3\n        /* \"#utility.yul\":3500:3520   */\n      tag_192\n      jump\t// in\n    tag_246:\n        /* \"#utility.yul\":3495:3520   */\n      swap2\n      pop\n        /* \"#utility.yul\":3534:3554   */\n      tag_247\n        /* \"#utility.yul\":3552:3553   */\n      dup4\n        /* \"#utility.yul\":3534:3554   */\n      tag_192\n      jump\t// in\n    tag_247:\n        /* \"#utility.yul\":3529:3554   */\n      swap3\n      pop\n        /* \"#utility.yul\":3577:3578   */\n      dup3\n        /* \"#utility.yul\":3574:3575   */\n      dup3\n        /* \"#utility.yul\":3570:3579   */\n      add\n        /* \"#utility.yul\":3563:3579   */\n      swap1\n      pop\n        /* \"#utility.yul\":3598:3601   */\n      dup1\n        /* \"#utility.yul\":3595:3596   */\n      dup3\n        /* \"#utility.yul\":3592:3602   */\n      gt\n        /* \"#utility.yul\":3589:3625   */\n      iszero\n      tag_248\n      jumpi\n        /* \"#utility.yul\":3605:3623   */\n      tag_249\n      tag_193\n      jump\t// in\n    tag_249:\n        /* \"#utility.yul\":3589:3625   */\n    tag_248:\n        /* \"#utility.yul\":3441:3632   */\n      swap3\n      swap2\n      pop\n      pop\n      jump\t// out\n        /* \"#utility.yul\":3638:3756   */\n    tag_194:\n        /* \"#utility.yul\":3725:3749   */\n      tag_251\n        /* \"#utility.yul\":3743:3748   */\n      dup2\n        /* \"#utility.yul\":3725:3749   */\n      tag_192\n      jump\t// in\n    tag_251:\n        /* \"#utility.yul\":3720:3723   */\n      dup3\n        /* \"#utility.yul\":3713:3750   */\n      mstore\n        /* \"#utility.yul\":3638:3756   */\n      pop\n      pop\n      jump\t// out\n        /* \"#utility.yul\":3762:3984   */\n    tag_30:\n        /* \"#utility.yul\":3855:3859   */\n      0x00\n        /* \"#utility.yul\":3893:3895   */\n      0x20\n        /* \"#utility.yul\":3882:3891   */\n      dup3\n        /* \"#utility.yul\":3878:3896   */\n      add\n        /* \"#utility.yul\":3870:3896   */\n      swap1\n      pop\n        /* \"#utility.yul\":3906:3977   */\n      tag_253\n        /* \"#utility.yul\":3974:3975   */\n      0x00\n        /* \"#utility.yul\":3963:3972   */\n      dup4\n        /* \"#utility.yul\":3959:3976   */\n      add\n        /* \"#utility.yul\":3950:3956   */\n      dup5\n        /* \"#utility.yul\":3906:3977   */\n      tag_194\n      jump\t// in\n    tag_253:\n        /* \"#utility.yul\":3762:3984   */\n      swap3\n      swap2\n      pop\n      pop\n      jump\t// out\n        /* \"#utility.yul\":3990:4094   */\n    tag_195:\n        /* \"#utility.yul\":4055:4061   */\n      0x00\n        /* \"#utility.yul\":4083:4087   */\n      0x03\n        /* \"#utility.yul\":4073:4087   */\n      swap1\n      pop\n        /* \"#utility.yul\":3990:4094   */\n      swap2\n      swap1\n      pop\n      jump\t// out\n        /* \"#utility.yul\":4100:4243   */\n    tag_196:\n        /* \"#utility.yul\":4197:4208   */\n      0x00\n        /* \"#utility.yul\":4234:4237   */\n      dup2\n        /* \"#utility.yul\":4219:4237   */\n      swap1\n      pop\n        /* \"#utility.yul\":4100:4243   */\n      swap3\n      swap2\n      pop\n      pop\n      jump\t// out\n        /* \"#utility.yul\":4249:4347   */\n    tag_197:\n        /* \"#utility.yul\":4314:4318   */\n      0x00\n        /* \"#utility.yul\":4337:4340   */\n      dup2\n        /* \"#utility.yul\":4329:4340   */\n      swap1\n      pop\n        /* \"#utility.yul\":4249:4347   */\n      swap2\n      swap1\n      pop\n      jump\t// out\n        /* \"#utility.yul\":4353:4479   */\n    tag_198:\n        /* \"#utility.yul\":4390:4397   */\n      0x00\n        /* \"#utility.yul\":4430:4472   */\n      0xffffffffffffffffffffffffffffffffffffffff\n        /* \"#utility.yul\":4423:4428   */\n      dup3\n        /* \"#utility.yul\":4419:4473   */\n      and\n        /* \"#utility.yul\":4408:4473   */\n      swap1\n      pop\n        /* \"#utility.yul\":4353:4479   */\n      swap2\n      swap1\n      pop\n      jump\t// out\n        /* \"#utility.yul\":4485:4581   */\n    tag_199:\n        /* \"#utility.yul\":4522:4529   */\n      0x00\n        /* \"#utility.yul\":4551:4575   */\n      tag_259\n        /* \"#utility.yul\":4569:4574   */\n      dup3\n        /* \"#utility.yul\":4551:4575   */\n      tag_198\n      jump\t// in\n    tag_259:\n        /* \"#utility.yul\":4540:4575   */\n      swap1\n      pop\n        /* \"#utility.yul\":4485:4581   */\n      swap2\n      swap1\n      pop\n      jump\t// out\n        /* \"#utility.yul\":4587:4695   */\n    tag_200:\n        /* \"#utility.yul\":4664:4688   */\n      tag_261\n        /* \"#utility.yul\":4682:4687   */\n      dup2\n        /* \"#utility.yul\":4664:4688   */\n      tag_199\n      jump\t// in\n    tag_261:\n        /* \"#utility.yul\":4659:4662   */\n      dup3\n        /* \"#utility.yul\":4652:4689   */\n      mstore\n        /* \"#utility.yul\":4587:4695   */\n      pop\n      pop\n      jump\t// out\n        /* \"#utility.yul\":4701:4880   */\n    tag_201:\n        /* \"#utility.yul\":4770:4780   */\n      0x00\n        /* \"#utility.yul\":4791:4837   */\n      tag_263\n        /* \"#utility.yul\":4833:4836   */\n      dup4\n        /* \"#utility.yul\":4825:4831   */\n      dup4\n        /* \"#utility.yul\":4791:4837   */\n      tag_200\n      jump\t// in\n    tag_263:\n        /* \"#utility.yul\":4869:4873   */\n      0x20\n        /* \"#utility.yul\":4864:4867   */\n      dup4\n        /* \"#utility.yul\":4860:4874   */\n      add\n        /* \"#utility.yul\":4846:4874   */\n      swap1\n      pop\n        /* \"#utility.yul\":4701:4880   */\n      swap3\n      swap2\n      pop\n      pop\n      jump\t// out\n        /* \"#utility.yul\":4886:4997   */\n    tag_202:\n        /* \"#utility.yul\":4954:4958   */\n      0x00\n        /* \"#utility.yul\":4986:4990   */\n      0x20\n        /* \"#utility.yul\":4981:4984   */\n      dup3\n        /* \"#utility.yul\":4977:4991   */\n      add\n        /* \"#utility.yul\":4969:4991   */\n      swap1\n      pop\n        /* \"#utility.yul\":4886:4997   */\n      swap2\n      swap1\n      pop\n      jump\t// out\n        /* \"#utility.yul\":5035:5729   */\n    tag_203:\n        /* \"#utility.yul\":5171:5223   */\n      tag_266\n        /* \"#utility.yul\":5217:5222   */\n      dup2\n        /* \"#utility.yul\":5171:5223   */\n      tag_195\n      jump\t// in\n    tag_266:\n        /* \"#utility.yul\":5239:5323   */\n      tag_267\n        /* \"#utility.yul\":5316:5322   */\n      dup2\n        /* \"#utility.yul\":5311:5314   */\n      dup5\n        /* \"#utility.yul\":5239:5323   */\n      tag_196\n      jump\t// in\n    tag_267:\n        /* \"#utility.yul\":5232:5323   */\n      swap3\n      pop\n        /* \"#utility.yul\":5347:5401   */\n      tag_268\n        /* \"#utility.yul\":5395:5400   */\n      dup3\n        /* \"#utility.yul\":5347:5401   */\n      tag_197\n      jump\t// in\n    tag_268:\n        /* \"#utility.yul\":5424:5431   */\n      dup1\n        /* \"#utility.yul\":5455:5456   */\n      0x00\n        /* \"#utility.yul\":5440:5722   */\n    tag_269:\n        /* \"#utility.yul\":5465:5471   */\n      dup4\n        /* \"#utility.yul\":5462:5463   */\n      dup2\n        /* \"#utility.yul\":5459:5472   */\n      lt\n        /* \"#utility.yul\":5440:5722   */\n      iszero\n      tag_271\n      jumpi\n        /* \"#utility.yul\":5541:5547   */\n      dup2\n        /* \"#utility.yul\":5535:5548   */\n      mload\n        /* \"#utility.yul\":5568:5631   */\n      tag_272\n        /* \"#utility.yul\":5627:5630   */\n      dup8\n        /* \"#utility.yul\":5612:5625   */\n      dup3\n        /* \"#utility.yul\":5568:5631   */\n      tag_201\n      jump\t// in\n    tag_272:\n        /* \"#utility.yul\":5561:5631   */\n      swap7\n      pop\n        /* \"#utility.yul\":5654:5712   */\n      tag_273\n        /* \"#utility.yul\":5705:5711   */\n      dup4\n        /* \"#utility.yul\":5654:5712   */\n      tag_202\n      jump\t// in\n    tag_273:\n        /* \"#utility.yul\":5644:5712   */\n      swap3\n      pop\n        /* \"#utility.yul\":5500:5722   */\n      pop\n        /* \"#utility.yul\":5487:5488   */\n      0x01\n        /* \"#utility.yul\":5484:5485   */\n      dup2\n        /* \"#utility.yul\":5480:5489   */\n      add\n        /* \"#utility.yul\":5475:5489   */\n      swap1\n      pop\n        /* \"#utility.yul\":5440:5722   */\n      jump(tag_269)\n    tag_271:\n        /* \"#utility.yul\":5444:5458   */\n      pop\n        /* \"#utility.yul\":5147:5729   */\n      pop\n      pop\n      pop\n        /* \"#utility.yul\":5035:5729   */\n      pop\n      pop\n      jump\t// out\n        /* \"#utility.yul\":5735:5839   */\n    tag_204:\n        /* \"#utility.yul\":5800:5806   */\n      0x00\n        /* \"#utility.yul\":5828:5832   */\n      0x03\n        /* \"#utility.yul\":5818:5832   */\n      swap1\n      pop\n        /* \"#utility.yul\":5735:5839   */\n      swap2\n      swap1\n      pop\n      jump\t// out\n        /* \"#utility.yul\":5845:5988   */\n    tag_205:\n        /* \"#utility.yul\":5942:5953   */\n      0x00\n        /* \"#utility.yul\":5979:5982   */\n      dup2\n        /* \"#utility.yul\":5964:5982   */\n      swap1\n      pop\n        /* \"#utility.yul\":5845:5988   */\n      swap3\n      swap2\n      pop\n      pop\n      jump\t// out\n        /* \"#utility.yul\":5994:6092   */\n    tag_206:\n        /* \"#utility.yul\":6059:6063   */\n      0x00\n        /* \"#utility.yul\":6082:6085   */\n      dup2\n        /* \"#utility.yul\":6074:6085   */\n      swap1\n      pop\n        /* \"#utility.yul\":5994:6092   */\n      swap2\n      swap1\n      pop\n      jump\t// out\n        /* \"#utility.yul\":6098:6206   */\n    tag_207:\n        /* \"#utility.yul\":6175:6199   */\n      tag_278\n        /* \"#utility.yul\":6193:6198   */\n      dup2\n        /* \"#utility.yul\":6175:6199   */\n      tag_192\n      jump\t// in\n    tag_278:\n        /* \"#utility.yul\":6170:6173   */\n      dup3\n        /* \"#utility.yul\":6163:6200   */\n      mstore\n        /* \"#utility.yul\":6098:6206   */\n      pop\n      pop\n      jump\t// out\n        /* \"#utility.yul\":6212:6391   */\n    tag_208:\n        /* \"#utility.yul\":6281:6291   */\n      0x00\n        /* \"#utility.yul\":6302:6348   */\n      tag_280\n        /* \"#utility.yul\":6344:6347   */\n      dup4\n        /* \"#utility.yul\":6336:6342   */\n      dup4\n        /* \"#utility.yul\":6302:6348   */\n      tag_207\n      jump\t// in\n    tag_280:\n        /* \"#utility.yul\":6380:6384   */\n      0x20\n        /* \"#utility.yul\":6375:6378   */\n      dup4\n        /* \"#utility.yul\":6371:6385   */\n      add\n        /* \"#utility.yul\":6357:6385   */\n      swap1\n      pop\n        /* \"#utility.yul\":6212:6391   */\n      swap3\n      swap2\n      pop\n      pop\n      jump\t// out\n        /* \"#utility.yul\":6397:6508   */\n    tag_209:\n        /* \"#utility.yul\":6465:6469   */\n      0x00\n        /* \"#utility.yul\":6497:6501   */\n      0x20\n        /* \"#utility.yul\":6492:6495   */\n      dup3\n        /* \"#utility.yul\":6488:6502   */\n      add\n        /* \"#utility.yul\":6480:6502   */\n      swap1\n      pop\n        /* \"#utility.yul\":6397:6508   */\n      swap2\n      swap1\n      pop\n      jump\t// out\n        /* \"#utility.yul\":6546:7240   */\n    tag_210:\n        /* \"#utility.yul\":6682:6734   */\n      tag_283\n        /* \"#utility.yul\":6728:6733   */\n      dup2\n        /* \"#utility.yul\":6682:6734   */\n      tag_204\n      jump\t// in\n    tag_283:\n        /* \"#utility.yul\":6750:6834   */\n      tag_284\n        /* \"#utility.yul\":6827:6833   */\n      dup2\n        /* \"#utility.yul\":6822:6825   */\n      dup5\n        /* \"#utility.yul\":6750:6834   */\n      tag_205\n      jump\t// in\n    tag_284:\n        /* \"#utility.yul\":6743:6834   */\n      swap3\n      pop\n        /* \"#utility.yul\":6858:6912   */\n      tag_285\n        /* \"#utility.yul\":6906:6911   */\n      dup3\n        /* \"#utility.yul\":6858:6912   */\n      tag_206\n      jump\t// in\n    tag_285:\n        /* \"#utility.yul\":6935:6942   */\n      dup1\n        /* \"#utility.yul\":6966:6967   */\n      0x00\n        /* \"#utility.yul\":6951:7233   */\n    tag_286:\n        /* \"#utility.yul\":6976:6982   */\n      dup4\n        /* \"#utility.yul\":6973:6974   */\n      dup2\n        /* \"#utility.yul\":6970:6983   */\n      lt\n        /* \"#utility.yul\":6951:7233   */\n      iszero\n      tag_288\n      jumpi\n        /* \"#utility.yul\":7052:7058   */\n      dup2\n        /* \"#utility.yul\":7046:7059   */\n      mload\n        /* \"#utility.yul\":7079:7142   */\n      tag_289\n        /* \"#utility.yul\":7138:7141   */\n      dup8\n        /* \"#utility.yul\":7123:7136   */\n      dup3\n        /* \"#utility.yul\":7079:7142   */\n      tag_208\n      jump\t// in\n    tag_289:\n        /* \"#utility.yul\":7072:7142   */\n      swap7\n      pop\n        /* \"#utility.yul\":7165:7223   */\n      tag_290\n        /* \"#utility.yul\":7216:7222   */\n      dup4\n        /* \"#utility.yul\":7165:7223   */\n      tag_209\n      jump\t// in\n    tag_290:\n        /* \"#utility.yul\":7155:7223   */\n      swap3\n      pop\n        /* \"#utility.yul\":7011:7233   */\n      pop\n        /* \"#utility.yul\":6998:6999   */\n      0x01\n        /* \"#utility.yul\":6995:6996   */\n      dup2\n        /* \"#utility.yul\":6991:7000   */\n      add\n        /* \"#utility.yul\":6986:7000   */\n      swap1\n      pop\n        /* \"#utility.yul\":6951:7233   */\n      jump(tag_286)\n    tag_288:\n        /* \"#utility.yul\":6955:6969   */\n      pop\n        /* \"#utility.yul\":6658:7240   */\n      pop\n      pop\n      pop\n        /* \"#utility.yul\":6546:7240   */\n      pop\n      pop\n      jump\t// out\n        /* \"#utility.yul\":7246:7763   */\n    tag_35:\n        /* \"#utility.yul\":7459:7463   */\n      0x00\n        /* \"#utility.yul\":7497:7500   */\n      0xc0\n        /* \"#utility.yul\":7486:7495   */\n      dup3\n        /* \"#utility.yul\":7482:7501   */\n      add\n        /* \"#utility.yul\":7474:7501   */\n      swap1\n      pop\n        /* \"#utility.yul\":7511:7628   */\n      tag_292\n        /* \"#utility.yul\":7625:7626   */\n      0x00\n        /* \"#utility.yul\":7614:7623   */\n      dup4\n        /* \"#utility.yul\":7610:7627   */\n      add\n        /* \"#utility.yul\":7601:7607   */\n      dup6\n        /* \"#utility.yul\":7511:7628   */\n      tag_203\n      jump\t// in\n    tag_292:\n        /* \"#utility.yul\":7638:7756   */\n      tag_293\n        /* \"#utility.yul\":7752:7754   */\n      0x60\n        /* \"#utility.yul\":7741:7750   */\n      dup4\n        /* \"#utility.yul\":7737:7755   */\n      add\n        /* \"#utility.yul\":7728:7734   */\n      dup5\n        /* \"#utility.yul\":7638:7756   */\n      tag_210\n      jump\t// in\n    tag_293:\n        /* \"#utility.yul\":7246:7763   */\n      swap4\n      swap3\n      pop\n      pop\n      pop\n      jump\t// out\n        /* \"#utility.yul\":7850:7967   */\n    tag_212:\n        /* \"#utility.yul\":7959:7960   */\n      0x00\n        /* \"#utility.yul\":7956:7957   */\n      0x00\n        /* \"#utility.yul\":7949:7961   */\n      revert\n        /* \"#utility.yul\":8096:8218   */\n    tag_214:\n        /* \"#utility.yul\":8169:8193   */\n      tag_298\n        /* \"#utility.yul\":8187:8192   */\n      dup2\n        /* \"#utility.yul\":8169:8193   */\n      tag_199\n      jump\t// in\n    tag_298:\n        /* \"#utility.yul\":8162:8167   */\n      dup2\n        /* \"#utility.yul\":8159:8194   */\n      eq\n        /* \"#utility.yul\":8149:8212   */\n      tag_299\n      jumpi\n        /* \"#utility.yul\":8208:8209   */\n      0x00\n        /* \"#utility.yul\":8205:8206   */\n      0x00\n        /* \"#utility.yul\":8198:8210   */\n      revert\n        /* \"#utility.yul\":8149:8212   */\n    tag_299:\n        /* \"#utility.yul\":8096:8218   */\n      pop\n      jump\t// out\n        /* \"#utility.yul\":8224:8363   */\n    tag_215:\n        /* \"#utility.yul\":8270:8275   */\n      0x00\n        /* \"#utility.yul\":8308:8314   */\n      dup2\n        /* \"#utility.yul\":8295:8315   */\n      calldataload\n        /* \"#utility.yul\":8286:8315   */\n      swap1\n      pop\n        /* \"#utility.yul\":8324:8357   */\n      tag_301\n        /* \"#utility.yul\":8351:8356   */\n      dup2\n        /* \"#utility.yul\":8324:8357   */\n      tag_214\n      jump\t// in\n    tag_301:\n        /* \"#utility.yul\":8224:8363   */\n      swap3\n      swap2\n      pop\n      pop\n      jump\t// out\n        /* \"#utility.yul\":8369:8698   */\n    tag_42:\n        /* \"#utility.yul\":8428:8434   */\n      0x00\n        /* \"#utility.yul\":8477:8479   */\n      0x20\n        /* \"#utility.yul\":8465:8474   */\n      dup3\n        /* \"#utility.yul\":8456:8463   */\n      dup5\n        /* \"#utility.yul\":8452:8475   */\n      sub\n        /* \"#utility.yul\":8448:8480   */\n      slt\n        /* \"#utility.yul\":8445:8564   */\n      iszero\n      tag_303\n      jumpi\n        /* \"#utility.yul\":8483:8562   */\n      tag_304\n      tag_212\n      jump\t// in\n    tag_304:\n        /* \"#utility.yul\":8445:8564   */\n    tag_303:\n        /* \"#utility.yul\":8603:8604   */\n      0x00\n        /* \"#utility.yul\":8628:8681   */\n      tag_305\n        /* \"#utility.yul\":8673:8680   */\n      dup5\n        /* \"#utility.yul\":8664:8670   */\n      dup3\n        /* \"#utility.yul\":8653:8662   */\n      dup6\n        /* \"#utility.yul\":8649:8671   */\n      add\n        /* \"#utility.yul\":8628:8681   */\n      tag_215\n      jump\t// in\n    tag_305:\n        /* \"#utility.yul\":8618:8681   */\n      swap2\n      pop\n        /* \"#utility.yul\":8574:8691   */\n      pop\n        /* \"#utility.yul\":8369:8698   */\n      swap3\n      swap2\n      pop\n      pop\n      jump\t// out\n        /* \"#utility.yul\":8704:8822   */\n    tag_216:\n        /* \"#utility.yul\":8791:8815   */\n      tag_307\n        /* \"#utility.yul\":8809:8814   */\n      dup2\n        /* \"#utility.yul\":8791:8815   */\n      tag_199\n      jump\t// in\n    tag_307:\n        /* \"#utility.yul\":8786:8789   */\n      dup3\n        /* \"#utility.yul\":8779:8816   */\n      mstore\n        /* \"#utility.yul\":8704:8822   */\n      pop\n      pop\n      jump\t// out\n        /* \"#utility.yul\":8828:9050   */\n    tag_57:\n        /* \"#utility.yul\":8921:8925   */\n      0x00\n        /* \"#utility.yul\":8959:8961   */\n      0x20\n        /* \"#utility.yul\":8948:8957   */\n      dup3\n        /* \"#utility.yul\":8944:8962   */\n      add\n        /* \"#utility.yul\":8936:8962   */\n      swap1\n      pop\n        /* \"#utility.yul\":8972:9043   */\n      tag_309\n        /* \"#utility.yul\":9040:9041   */\n      0x00\n        /* \"#utility.yul\":9029:9038   */\n      dup4\n        /* \"#utility.yul\":9025:9042   */\n      add\n        /* \"#utility.yul\":9016:9022   */\n      dup5\n        /* \"#utility.yul\":8972:9043   */\n      tag_216\n      jump\t// in\n    tag_309:\n        /* \"#utility.yul\":8828:9050   */\n      swap3\n      swap2\n      pop\n      pop\n      jump\t// out\n        /* \"#utility.yul\":9056:9146   */\n    tag_217:\n        /* \"#utility.yul\":9090:9097   */\n      0x00\n        /* \"#utility.yul\":9133:9138   */\n      dup2\n        /* \"#utility.yul\":9126:9139   */\n      iszero\n        /* \"#utility.yul\":9119:9140   */\n      iszero\n        /* \"#utility.yul\":9108:9140   */\n      swap1\n      pop\n        /* \"#utility.yul\":9056:9146   */\n      swap2\n      swap1\n      pop\n      jump\t// out\n        /* \"#utility.yul\":9152:9261   */\n    tag_218:\n        /* \"#utility.yul\":9233:9254   */\n      tag_312\n        /* \"#utility.yul\":9248:9253   */\n      dup2\n        /* \"#utility.yul\":9233:9254   */\n      tag_217\n      jump\t// in\n    tag_312:\n        /* \"#utility.yul\":9228:9231   */\n      dup3\n        /* \"#utility.yul\":9221:9255   */\n      mstore\n        /* \"#utility.yul\":9152:9261   */\n      pop\n      pop\n      jump\t// out\n        /* \"#utility.yul\":9267:9697   */\n    tag_62:\n        /* \"#utility.yul\":9410:9414   */\n      0x00\n        /* \"#utility.yul\":9448:9450   */\n      0x60\n        /* \"#utility.yul\":9437:9446   */\n      dup3\n        /* \"#utility.yul\":9433:9451   */\n      add\n        /* \"#utility.yul\":9425:9451   */\n      swap1\n      pop\n        /* \"#utility.yul\":9461:9532   */\n      tag_314\n        /* \"#utility.yul\":9529:9530   */\n      0x00\n        /* \"#utility.yul\":9518:9527   */\n      dup4\n        /* \"#utility.yul\":9514:9531   */\n      add\n        /* \"#utility.yul\":9505:9511   */\n      dup7\n        /* \"#utility.yul\":9461:9532   */\n      tag_194\n      jump\t// in\n    tag_314:\n        /* \"#utility.yul\":9542:9614   */\n      tag_315\n        /* \"#utility.yul\":9610:9612   */\n      0x20\n        /* \"#utility.yul\":9599:9608   */\n      dup4\n        /* \"#utility.yul\":9595:9613   */\n      add\n        /* \"#utility.yul\":9586:9592   */\n      dup6\n        /* \"#utility.yul\":9542:9614   */\n      tag_194\n      jump\t// in\n    tag_315:\n        /* \"#utility.yul\":9624:9690   */\n      tag_316\n        /* \"#utility.yul\":9686:9688   */\n      0x40\n        /* \"#utility.yul\":9675:9684   */\n      dup4\n        /* \"#utility.yul\":9671:9689   */\n      add\n        /* \"#utility.yul\":9662:9668   */\n      dup5\n        /* \"#utility.yul\":9624:9690   */\n      tag_218\n      jump\t// in\n    tag_316:\n        /* \"#utility.yul\":9267:9697   */\n      swap5\n      swap4\n      pop\n      pop\n      pop\n      pop\n      jump\t// out\n        /* \"#utility.yul\":9703:9883   */\n    tag_88:\n        /* \"#utility.yul\":9751:9828   */\n      0x4e487b7100000000000000000000000000000000000000000000000000000000\n        /* \"#utility.yul\":9748:9749   */\n      0x00\n        /* \"#utility.yul\":9741:9829   */\n      mstore\n        /* \"#utility.yul\":9848:9852   */\n      0x32\n        /* \"#utility.yul\":9845:9846   */\n      0x04\n        /* \"#utility.yul\":9838:9853   */\n      mstore\n        /* \"#utility.yul\":9872:9876   */\n      0x24\n        /* \"#utility.yul\":9869:9870   */\n      0x00\n        /* \"#utility.yul\":9862:9877   */\n      revert\n        /* \"#utility.yul\":9889:10109   */\n    tag_219:\n        /* \"#utility.yul\":10029:10063   */\n      0x4f6e6c79206f776e65722063616e2063616c6c20746869732066756e6374696f\n        /* \"#utility.yul\":10025:10026   */\n      0x00\n        /* \"#utility.yul\":10017:10023   */\n      dup3\n        /* \"#utility.yul\":10013:10027   */\n      add\n        /* \"#utility.yul\":10006:10064   */\n      mstore\n        /* \"#utility.yul\":10098:10101   */\n      0x6e00000000000000000000000000000000000000000000000000000000000000\n        /* \"#utility.yul\":10093:10095   */\n      0x20\n        /* \"#utility.yul\":10085:10091   */\n      dup3\n        /* \"#utility.yul\":10081:10096   */\n      add\n        /* \"#utility.yul\":10074:10102   */\n      mstore\n        /* \"#utility.yul\":9889:10109   */\n      pop\n      jump\t// out\n        /* \"#utility.yul\":10115:10481   */\n    tag_220:\n        /* \"#utility.yul\":10257:10260   */\n      0x00\n        /* \"#utility.yul\":10278:10345   */\n      tag_320\n        /* \"#utility.yul\":10342:10344   */\n      0x21\n        /* \"#utility.yul\":10337:10340   */\n      dup4\n        /* \"#utility.yul\":10278:10345   */\n      tag_185\n      jump\t// in\n    tag_320:\n        /* \"#utility.yul\":10271:10345   */\n      swap2\n      pop\n        /* \"#utility.yul\":10354:10447   */\n      tag_321\n        /* \"#utility.yul\":10443:10446   */\n      dup3\n        /* \"#utility.yul\":10354:10447   */\n      tag_219\n      jump\t// in\n    tag_321:\n        /* \"#utility.yul\":10472:10474   */\n      0x40\n        /* \"#utility.yul\":10467:10470   */\n      dup3\n        /* \"#utility.yul\":10463:10475   */\n      add\n        /* \"#utility.yul\":10456:10475   */\n      swap1\n      pop\n        /* \"#utility.yul\":10115:10481   */\n      swap2\n      swap1\n      pop\n      jump\t// out\n        /* \"#utility.yul\":10487:10906   */\n    tag_150:\n        /* \"#utility.yul\":10653:10657   */\n      0x00\n        /* \"#utility.yul\":10691:10693   */\n      0x20\n        /* \"#utility.yul\":10680:10689   */\n      dup3\n        /* \"#utility.yul\":10676:10694   */\n      add\n        /* \"#utility.yul\":10668:10694   */\n      swap1\n      pop\n        /* \"#utility.yul\":10740:10749   */\n      dup2\n        /* \"#utility.yul\":10734:10738   */\n      dup2\n        /* \"#utility.yul\":10730:10750   */\n      sub\n        /* \"#utility.yul\":10726:10727   */\n      0x00\n        /* \"#utility.yul\":10715:10724   */\n      dup4\n        /* \"#utility.yul\":10711:10728   */\n      add\n        /* \"#utility.yul\":10704:10751   */\n      mstore\n        /* \"#utility.yul\":10768:10899   */\n      tag_323\n        /* \"#utility.yul\":10894:10898   */\n      dup2\n        /* \"#utility.yul\":10768:10899   */\n      tag_220\n      jump\t// in\n    tag_323:\n        /* \"#utility.yul\":10760:10899   */\n      swap1\n      pop\n        /* \"#utility.yul\":10487:10906   */\n      swap2\n      swap1\n      pop\n      jump\t// out\n        /* \"#utility.yul\":10912:11082   */\n    tag_221:\n        /* \"#utility.yul\":11052:11074   */\n      0x4e6f2066756e647320746f207769746864726177000000000000000000000000\n        /* \"#utility.yul\":11048:11049   */\n      0x00\n        /* \"#utility.yul\":11040:11046   */\n      dup3\n        /* \"#utility.yul\":11036:11050   */\n      add\n        /* \"#utility.yul\":11029:11075   */\n      mstore\n        /* \"#utility.yul\":10912:11082   */\n      pop\n      jump\t// out\n        /* \"#utility.yul\":11088:11454   */\n    tag_222:\n        /* \"#utility.yul\":11230:11233   */\n      0x00\n        /* \"#utility.yul\":11251:11318   */\n      tag_326\n        /* \"#utility.yul\":11315:11317   */\n      0x14\n        /* \"#utility.yul\":11310:11313   */\n      dup4\n        /* \"#utility.yul\":11251:11318   */\n      tag_185\n      jump\t// in\n    tag_326:\n        /* \"#utility.yul\":11244:11318   */\n      swap2\n      pop\n        /* \"#utility.yul\":11327:11420   */\n      tag_327\n        /* \"#utility.yul\":11416:11419   */\n      dup3\n        /* \"#utility.yul\":11327:11420   */\n      tag_221\n      jump\t// in\n    tag_327:\n        /* \"#utility.yul\":11445:11447   */\n      0x20\n        /* \"#utility.yul\":11440:11443   */\n      dup3\n        /* \"#utility.yul\":11436:11448   */\n      add\n        /* \"#utility.yul\":11429:11448   */\n      swap1\n      pop\n        /* \"#utility.yul\":11088:11454   */\n      swap2\n      swap1\n      pop\n      jump\t// out\n        /* \"#utility.yul\":11460:11879   */\n    tag_154:\n        /* \"#utility.yul\":11626:11630   */\n      0x00\n        /* \"#utility.yul\":11664:11666   */\n      0x20\n        /* \"#utility.yul\":11653:11662   */\n      dup3\n        /* \"#utility.yul\":11649:11667   */\n      add\n        /* \"#utility.yul\":11641:11667   */\n      swap1\n      pop\n        /* \"#utility.yul\":11713:11722   */\n      dup2\n        /* \"#utility.yul\":11707:11711   */\n      dup2\n        /* \"#utility.yul\":11703:11723   */\n      sub\n        /* \"#utility.yul\":11699:11700   */\n      0x00\n        /* \"#utility.yul\":11688:11697   */\n      dup4\n        /* \"#utility.yul\":11684:11701   */\n      add\n        /* \"#utility.yul\":11677:11724   */\n      mstore\n        /* \"#utility.yul\":11741:11872   */\n      tag_329\n        /* \"#utility.yul\":11867:11871   */\n      dup2\n        /* \"#utility.yul\":11741:11872   */\n      tag_222\n      jump\t// in\n    tag_329:\n        /* \"#utility.yul\":11733:11872   */\n      swap1\n      pop\n        /* \"#utility.yul\":11460:11879   */\n      swap2\n      swap1\n      pop\n      jump\t// out\n\n    auxdata: 0xa2646970667358221220e37c3fcd5f2a4a25321cd5f14ce99926f8c2a18ff859f62717e47b82ce40c1c964736f6c634300081e0033\n}\n",
				"bytecode": {
					"linkReferences": {},
					"object": "6080604052335f5f6101000a81548173ffffffffffffffffffffffffffffffffffffffff021916908373ffffffffffffffffffffffffffffffffffffffff1602179055504260038190555062278d0042605791906097565b60048190555060c3565b5f819050919050565b7f4e487b71000000000000000000000000000000000000000000000000000000005f52601160045260245ffd5b5f609f826061565b915060a8836061565b925082820190508082111560bd5760bc606a565b5b92915050565b61140b806100d05f395ff3fe60806040526004361061009f575f3560e01c80638da5cb5b116100635780638da5cb5b146103005780639fc2ac9d1461032a578063cc6cb19a14610356578063de2ed89314610392578063ed88c68e146103bc578063f12a4a53146103c65761022b565b80632d1e25181461022f5780633ccfd60b1461025a578063410a1d32146102705780636f9fb98a146102ac57806378331552146102d65761022b565b3661022b576003544210156100e9576040517f08c379a00000000000000000000000000000000000000000000000000000000081526004016100e090610e9c565b60405180910390fd5b60045442111561012e576040517f08c379a000000000000000000000000000000000000000000000000000000000815260040161012590610f04565b60405180910390fd5b5f3411610170576040517f08c379a000000000000000000000000000000000000000000000000000000000815260040161016790610f92565b60405180910390fd5b3460015f3373ffffffffffffffffffffffffffffffffffffffff1673ffffffffffffffffffffffffffffffffffffffff1681526020019081526020015f205f8282546101bc9190610fe6565b925050819055503460025f8282546101d49190610fe6565b925050819055503373ffffffffffffffffffffffffffffffffffffffff167f5d8bc849764969eb1bcc6d0a2f55999d0167c1ccec240a4f39cf664ca9c4148e346040516102219190611028565b60405180910390a2005b5f5ffd5b34801561023a575f5ffd5b506102436103f0565b6040516102519291906111bb565b60405180910390f35b348015610265575f5ffd5b5061026e61088a565b005b34801561027b575f5ffd5b5061029660048036038101906102919190611210565b610a33565b6040516102a39190611028565b60405180910390f35b3480156102b7575f5ffd5b506102c0610a79565b6040516102cd9190611028565b60405180910390f35b3480156102e1575f5ffd5b506102ea610a80565b6040516102f79190611028565b60405180910390f35b34801561030b575f5ffd5b50610314610a86565b604051610321919061124a565b60405180910390f35b348015610335575f5ffd5b5061033e610aaa565b60405161034d9392919061127d565b60405180910390f35b348015610361575f5ffd5b5061037c60048036038101906103779190611210565b610ad2565b6040516103899190611028565b60405180910390f35b34801561039d575f5ffd5b506103a6610ae7565b6040516103b39190611028565b60405180910390f35b6103c4610aed565b005b3480156103d1575f5ffd5b506103da610df8565b6040516103e79190611028565b60405180910390f35b6103f8610dfe565b610400610e20565b5f5f90505b6003811015610483575f838260038110610422576104216112b2565b5b602002019073ffffffffffffffffffffffffffffffffffffffff16908173ffffffffffffffffffffffffffffffffffffffff16815250505f82826003811061046d5761046c6112b2565b5b6020020181815250508080600101915050610405565b505f5f90505b600580549050811015610885575f600582815481106104ab576104aa6112b2565b5b905f5260205f2090600202015f015f9054906101000a900473ffffffffffffffffffffffffffffffffffffffff1690505f600583815481106104f0576104ef6112b2565b5b905f5260205f209060020201600101549050835f60038110610515576105146112b2565b5b60200201518111156106c05783600160038110610535576105346112b2565b5b60200201518460026003811061054e5761054d6112b2565b5b6020020181815250508460016003811061056b5761056a6112b2565b5b602002015185600260038110610584576105836112b2565b5b602002019073ffffffffffffffffffffffffffffffffffffffff16908173ffffffffffffffffffffffffffffffffffffffff1681525050835f600381106105ce576105cd6112b2565b5b6020020151846001600381106105e7576105e66112b2565b5b602002018181525050845f60038110610603576106026112b2565b5b60200201518560016003811061061c5761061b6112b2565b5b602002019073ffffffffffffffffffffffffffffffffffffffff16908173ffffffffffffffffffffffffffffffffffffffff168152505080845f60038110610667576106666112b2565b5b60200201818152505081855f60038110610684576106836112b2565b5b602002019073ffffffffffffffffffffffffffffffffffffffff16908173ffffffffffffffffffffffffffffffffffffffff1681525050610876565b836001600381106106d4576106d36112b2565b5b60200201518111156107e957836001600381106106f4576106f36112b2565b5b60200201518460026003811061070d5761070c6112b2565b5b6020020181815250508460016003811061072a576107296112b2565b5b602002015185600260038110610743576107426112b2565b5b602002019073ffffffffffffffffffffffffffffffffffffffff16908173ffffffffffffffffffffffffffffffffffffffff1681525050808460016003811061078f5761078e6112b2565b5b60200201818152505081856001600381106107ad576107ac6112b2565b5b602002019073ffffffffffffffffffffffffffffffffffffffff16908173ffffffffffffffffffffffffffffffffffffffff1681525050610875565b836002600381106107fd576107fc6112b2565b5b602002015181111561087457808460026003811061081e5761081d6112b2565b5b602002018181525050818560026003811061083c5761083b6112b2565b5b602002019073ffffffffffffffffffffffffffffffffffffffff16908173ffffffffffffffffffffffffffffffffffffffff16815250505b5b5b50508080600101915050610489565b509091565b5f5f9054906101000a900473ffffffffffffffffffffffffffffffffffffffff1673ffffffffffffffffffffffffffffffffffffffff163373ffffffffffffffffffffffffffffffffffffffff1614610918576040517f08c379a000000000000000000000000000000000000000000000000000000000815260040161090f9061134f565b60405180910390fd5b5f4790505f811161095e576040517f08c379a0000000000000000000000000000000000000000000000000000000008152600401610955906113b7565b60405180910390fd5b5f5f9054906101000a900473ffffffffffffffffffffffffffffffffffffffff1673ffffffffffffffffffffffffffffffffffffffff166108fc8290811502906040515f60405180830381858888f193505050501580156109c1573d5f5f3e3d5ffd5b505f5f9054906101000a900473ffffffffffffffffffffffffffffffffffffffff1673ffffffffffffffffffffffffffffffffffffffff167f7fcf532c15f0a6db0bd6d0e038bea71d30d808c7d98cb3bf7268a95bf5081b6582604051610a289190611028565b60405180910390a250565b5f60015f8373ffffffffffffffffffffffffffffffffffffffff1673ffffffffffffffffffffffffffffffffffffffff1681526020019081526020015f20549050919050565b5f47905090565b60035481565b5f5f9054906101000a900473ffffffffffffffffffffffffffffffffffffffff1681565b5f5f5f6003544210158015610ac157506004544211155b905060035460045492509250909192565b6001602052805f5260405f205f915090505481565b60025481565b600354421015610b32576040517f08c379a0000000000000000000000000000000000000000000000000000000008152600401610b2990610e9c565b60405180910390fd5b600454421115610b77576040517f08c379a0000000000000000000000000000000000000000000000000000000008152600401610b6e90610f04565b60405180910390fd5b5f3411610bb9576040517f08c379a0000000000000000000000000000000000000000000000000000000008152600401610bb090610f92565b60405180910390fd5b3460015f3373ffffffffffffffffffffffffffffffffffffffff1673ffffffffffffffffffffffffffffffffffffffff1681526020019081526020015f205f828254610c059190610fe6565b925050819055503460025f828254610c1d9190610fe6565b925050819055505f5f90505f5f90505b600580549050811015610cfd573373ffffffffffffffffffffffffffffffffffffffff1660058281548110610c6557610c646112b2565b5b905f5260205f2090600202015f015f9054906101000a900473ffffffffffffffffffffffffffffffffffffffff1673ffffffffffffffffffffffffffffffffffffffff1603610cf0573460058281548110610cc357610cc26112b2565b5b905f5260205f2090600202016001015f828254610ce09190610fe6565b9250508190555060019150610cfd565b8080600101915050610c2d565b5080610da757600560405180604001604052803373ffffffffffffffffffffffffffffffffffffffff16815260200134815250908060018154018082558091505060019003905f5260205f2090600202015f909190919091505f820151815f015f6101000a81548173ffffffffffffffffffffffffffffffffffffffff021916908373ffffffffffffffffffffffffffffffffffffffff1602179055506020820151816001015550505b3373ffffffffffffffffffffffffffffffffffffffff167f5d8bc849764969eb1bcc6d0a2f55999d0167c1ccec240a4f39cf664ca9c4148e34604051610ded9190611028565b60405180910390a250565b60045481565b6040518060600160405280600390602082028036833780820191505090505090565b6040518060600160405280600390602082028036833780820191505090505090565b5f82825260208201905092915050565b7f446f6e6174696f6e20706572696f6420686173206e6f742073746172746564005f82015250565b5f610e86601f83610e42565b9150610e9182610e52565b602082019050919050565b5f6020820190508181035f830152610eb381610e7a565b9050919050565b7f446f6e6174696f6e20706572696f642068617320656e646564000000000000005f82015250565b5f610eee601983610e42565b9150610ef982610eba565b602082019050919050565b5f6020820190508181035f830152610f1b81610ee2565b9050919050565b7f446f6e6174696f6e20616d6f756e74206d7573742062652067726561746572205f8201527f7468616e20300000000000000000000000000000000000000000000000000000602082015250565b5f610f7c602683610e42565b9150610f8782610f22565b604082019050919050565b5f6020820190508181035f830152610fa981610f70565b9050919050565b5f819050919050565b7f4e487b71000000000000000000000000000000000000000000000000000000005f52601160045260245ffd5b5f610ff082610fb0565b9150610ffb83610fb0565b925082820190508082111561101357611012610fb9565b5b92915050565b61102281610fb0565b82525050565b5f60208201905061103b5f830184611019565b92915050565b5f60039050919050565b5f81905092915050565b5f819050919050565b5f73ffffffffffffffffffffffffffffffffffffffff82169050919050565b5f6110878261105e565b9050919050565b6110978161107d565b82525050565b5f6110a8838361108e565b60208301905092915050565b5f602082019050919050565b6110c981611041565b6110d3818461104b565b92506110de82611055565b805f5b8381101561110e5781516110f5878261109d565b9650611100836110b4565b9250506001810190506110e1565b505050505050565b5f60039050919050565b5f81905092915050565b5f819050919050565b61113c81610fb0565b82525050565b5f61114d8383611133565b60208301905092915050565b5f602082019050919050565b61116e81611116565b6111788184611120565b92506111838261112a565b805f5b838110156111b357815161119a8782611142565b96506111a583611159565b925050600181019050611186565b505050505050565b5f60c0820190506111ce5f8301856110c0565b6111db6060830184611165565b9392505050565b5f5ffd5b6111ef8161107d565b81146111f9575f5ffd5b50565b5f8135905061120a816111e6565b92915050565b5f60208284031215611225576112246111e2565b5b5f611232848285016111fc565b91505092915050565b6112448161107d565b82525050565b5f60208201905061125d5f83018461123b565b92915050565b5f8115159050919050565b61127781611263565b82525050565b5f6060820190506112905f830186611019565b61129d6020830185611019565b6112aa604083018461126e565b949350505050565b7f4e487b71000000000000000000000000000000000000000000000000000000005f52603260045260245ffd5b7f4f6e6c79206f776e65722063616e2063616c6c20746869732066756e6374696f5f8201527f6e00000000000000000000000000000000000000000000000000000000000000602082015250565b5f611339602183610e42565b9150611344826112df565b604082019050919050565b5f6020820190508181035f8301526113668161132d565b9050919050565b7f4e6f2066756e647320746f2077697468647261770000000000000000000000005f82015250565b5f6113a1601483610e42565b91506113ac8261136d565b602082019050919050565b5f6020820190508181035f8301526113ce81611395565b905091905056fea2646970667358221220e37c3fcd5f2a4a25321cd5f14ce99926f8c2a18ff859f62717e47b82ce40c1c964736f6c634300081e0033",
					"opcodes": "PUSH1 0x80 PUSH1 0x40 MSTORE CALLER PUSH0 PUSH0 PUSH2 0x100 EXP DUP2 SLOAD DUP2 PUSH20 0xFFFFFFFFFFFFFFFFFFFFFFFFFFFFFFFFFFFFFFFF MUL NOT AND SWAP1 DUP4 PUSH20 0xFFFFFFFFFFFFFFFFFFFFFFFFFFFFFFFFFFFFFFFF AND MUL OR SWAP1 SSTORE POP TIMESTAMP PUSH1 0x3 DUP2 SWAP1 SSTORE POP PUSH3 0x278D00 TIMESTAMP PUSH1 0x57 SWAP2 SWAP1 PUSH1 0x97 JUMP JUMPDEST PUSH1 0x4 DUP2 SWAP1 SSTORE POP PUSH1 0xC3 JUMP JUMPDEST PUSH0 DUP2 SWAP1 POP SWAP2 SWAP1 POP JUMP JUMPDEST PUSH32 0x4E487B7100000000000000000000000000000000000000000000000000000000 PUSH0 MSTORE PUSH1 0x11 PUSH1 0x4 MSTORE PUSH1 0x24 PUSH0 REVERT JUMPDEST PUSH0 PUSH1 0x9F DUP3 PUSH1 0x61 JUMP JUMPDEST SWAP2 POP PUSH1 0xA8 DUP4 PUSH1 0x61 JUMP JUMPDEST SWAP3 POP DUP3 DUP3 ADD SWAP1 POP DUP1 DUP3 GT ISZERO PUSH1 0xBD JUMPI PUSH1 0xBC PUSH1 0x6A JUMP JUMPDEST JUMPDEST SWAP3 SWAP2 POP POP JUMP JUMPDEST PUSH2 0x140B DUP1 PUSH2 0xD0 PUSH0 CODECOPY PUSH0 RETURN INVALID PUSH1 0x80 PUSH1 0x40 MSTORE PUSH1 0x4 CALLDATASIZE LT PUSH2 0x9F JUMPI PUSH0 CALLDATALOAD PUSH1 0xE0 SHR DUP1 PUSH4 0x8DA5CB5B GT PUSH2 0x63 JUMPI DUP1 PUSH4 0x8DA5CB5B EQ PUSH2 0x300 JUMPI DUP1 PUSH4 0x9FC2AC9D EQ PUSH2 0x32A JUMPI DUP1 PUSH4 0xCC6CB19A EQ PUSH2 0x356 JUMPI DUP1 PUSH4 0xDE2ED893 EQ PUSH2 0x392 JUMPI DUP1 PUSH4 0xED88C68E EQ PUSH2 0x3BC JUMPI DUP1 PUSH4 0xF12A4A53 EQ PUSH2 0x3C6 JUMPI PUSH2 0x22B JUMP JUMPDEST DUP1 PUSH4 0x2D1E2518 EQ PUSH2 0x22F JUMPI DUP1 PUSH4 0x3CCFD60B EQ PUSH2 0x25A JUMPI DUP1 PUSH4 0x410A1D32 EQ PUSH2 0x270 JUMPI DUP1 PUSH4 0x6F9FB98A EQ PUSH2 0x2AC JUMPI DUP1 PUSH4 0x78331552 EQ PUSH2 0x2D6 JUMPI PUSH2 0x22B JUMP JUMPDEST CALLDATASIZE PUSH2 0x22B JUMPI PUSH1 0x3 SLOAD TIMESTAMP LT ISZERO PUSH2 0xE9 JUMPI PUSH1 0x40 MLOAD PUSH32 0x8C379A000000000000000000000000000000000000000000000000000000000 DUP2 MSTORE PUSH1 0x4 ADD PUSH2 0xE0 SWAP1 PUSH2 0xE9C JUMP JUMPDEST PUSH1 0x40 MLOAD DUP1 SWAP2 SUB SWAP1 REVERT JUMPDEST PUSH1 0x4 SLOAD TIMESTAMP GT ISZERO PUSH2 0x12E JUMPI PUSH1 0x40 MLOAD PUSH32 0x8C379A000000000000000000000000000000000000000000000000000000000 DUP2 MSTORE PUSH1 0x4 ADD PUSH2 0x125 SWAP1 PUSH2 0xF04 JUMP JUMPDEST PUSH1 0x40 MLOAD DUP1 SWAP2 SUB SWAP1 REVERT JUMPDEST PUSH0 CALLVALUE GT PUSH2 0x170 JUMPI PUSH1 0x40 MLOAD PUSH32 0x8C379A000000000000000000000000000000000000000000000000000000000 DUP2 MSTORE PUSH1 0x4 ADD PUSH2 0x167 SWAP1 PUSH2 0xF92 JUMP JUMPDEST PUSH1 0x40 MLOAD DUP1 SWAP2 SUB SWAP1 REVERT JUMPDEST CALLVALUE PUSH1 0x1 PUSH0 CALLER PUSH20 0xFFFFFFFFFFFFFFFFFFFFFFFFFFFFFFFFFFFFFFFF AND PUSH20 0xFFFFFFFFFFFFFFFFFFFFFFFFFFFFFFFFFFFFFFFF AND DUP2 MSTORE PUSH1 0x20 ADD SWAP1 DUP2 MSTORE PUSH1 0x20 ADD PUSH0 KECCAK256 PUSH0 DUP3 DUP3 SLOAD PUSH2 0x1BC SWAP2 SWAP1 PUSH2 0xFE6 JUMP JUMPDEST SWAP3 POP POP DUP2 SWAP1 SSTORE POP CALLVALUE PUSH1 0x2 PUSH0 DUP3 DUP3 SLOAD PUSH2 0x1D4 SWAP2 SWAP1 PUSH2 0xFE6 JUMP JUMPDEST SWAP3 POP POP DUP2 SWAP1 SSTORE POP CALLER PUSH20 0xFFFFFFFFFFFFFFFFFFFFFFFFFFFFFFFFFFFFFFFF AND PUSH32 0x5D8BC849764969EB1BCC6D0A2F55999D0167C1CCEC240A4F39CF664CA9C4148E CALLVALUE PUSH1 0x40 MLOAD PUSH2 0x221 SWAP2 SWAP1 PUSH2 0x1028 JUMP JUMPDEST PUSH1 0x40 MLOAD DUP1 SWAP2 SUB SWAP1 LOG2 STOP JUMPDEST PUSH0 PUSH0 REVERT JUMPDEST CALLVALUE DUP1 ISZERO PUSH2 0x23A JUMPI PUSH0 PUSH0 REVERT JUMPDEST POP PUSH2 0x243 PUSH2 0x3F0 JUMP JUMPDEST PUSH1 0x40 MLOAD PUSH2 0x251 SWAP3 SWAP2 SWAP1 PUSH2 0x11BB JUMP JUMPDEST PUSH1 0x40 MLOAD DUP1 SWAP2 SUB SWAP1 RETURN JUMPDEST CALLVALUE DUP1 ISZERO PUSH2 0x265 JUMPI PUSH0 PUSH0 REVERT JUMPDEST POP PUSH2 0x26E PUSH2 0x88A JUMP JUMPDEST STOP JUMPDEST CALLVALUE DUP1 ISZERO PUSH2 0x27B JUMPI PUSH0 PUSH0 REVERT JUMPDEST POP PUSH2 0x296 PUSH1 0x4 DUP1 CALLDATASIZE SUB DUP2 ADD SWAP1 PUSH2 0x291 SWAP2 SWAP1 PUSH2 0x1210 JUMP JUMPDEST PUSH2 0xA33 JUMP JUMPDEST PUSH1 0x40 MLOAD PUSH2 0x2A3 SWAP2 SWAP1 PUSH2 0x1028 JUMP JUMPDEST PUSH1 0x40 MLOAD DUP1 SWAP2 SUB SWAP1 RETURN JUMPDEST CALLVALUE DUP1 ISZERO PUSH2 0x2B7 JUMPI PUSH0 PUSH0 REVERT JUMPDEST POP PUSH2 0x2C0 PUSH2 0xA79 JUMP JUMPDEST PUSH1 0x40 MLOAD PUSH2 0x2CD SWAP2 SWAP1 PUSH2 0x1028 JUMP JUMPDEST PUSH1 0x40 MLOAD DUP1 SWAP2 SUB SWAP1 RETURN JUMPDEST CALLVALUE DUP1 ISZERO PUSH2 0x2E1 JUMPI PUSH0 PUSH0 REVERT JUMPDEST POP PUSH2 0x2EA PUSH2 0xA80 JUMP JUMPDEST PUSH1 0x40 MLOAD PUSH2 0x2F7 SWAP2 SWAP1 PUSH2 0x1028 JUMP JUMPDEST PUSH1 0x40 MLOAD DUP1 SWAP2 SUB SWAP1 RETURN JUMPDEST CALLVALUE DUP1 ISZERO PUSH2 0x30B JUMPI PUSH0 PUSH0 REVERT JUMPDEST POP PUSH2 0x314 PUSH2 0xA86 JUMP JUMPDEST PUSH1 0x40 MLOAD PUSH2 0x321 SWAP2 SWAP1 PUSH2 0x124A JUMP JUMPDEST PUSH1 0x40 MLOAD DUP1 SWAP2 SUB SWAP1 RETURN JUMPDEST CALLVALUE DUP1 ISZERO PUSH2 0x335 JUMPI PUSH0 PUSH0 REVERT JUMPDEST POP PUSH2 0x33E PUSH2 0xAAA JUMP JUMPDEST PUSH1 0x40 MLOAD PUSH2 0x34D SWAP4 SWAP3 SWAP2 SWAP1 PUSH2 0x127D JUMP JUMPDEST PUSH1 0x40 MLOAD DUP1 SWAP2 SUB SWAP1 RETURN JUMPDEST CALLVALUE DUP1 ISZERO PUSH2 0x361 JUMPI PUSH0 PUSH0 REVERT JUMPDEST POP PUSH2 0x37C PUSH1 0x4 DUP1 CALLDATASIZE SUB DUP2 ADD SWAP1 PUSH2 0x377 SWAP2 SWAP1 PUSH2 0x1210 JUMP JUMPDEST PUSH2 0xAD2 JUMP JUMPDEST PUSH1 0x40 MLOAD PUSH2 0x389 SWAP2 SWAP1 PUSH2 0x1028 JUMP JUMPDEST PUSH1 0x40 MLOAD DUP1 SWAP2 SUB SWAP1 RETURN JUMPDEST CALLVALUE DUP1 ISZERO PUSH2 0x39D JUMPI PUSH0 PUSH0 REVERT JUMPDEST POP PUSH2 0x3A6 PUSH2 0xAE7 JUMP JUMPDEST PUSH1 0x40 MLOAD PUSH2 0x3B3 SWAP2 SWAP1 PUSH2 0x1028 JUMP JUMPDEST PUSH1 0x40 MLOAD DUP1 SWAP2 SUB SWAP1 RETURN JUMPDEST PUSH2 0x3C4 PUSH2 0xAED JUMP JUMPDEST STOP JUMPDEST CALLVALUE DUP1 ISZERO PUSH2 0x3D1 JUMPI PUSH0 PUSH0 REVERT JUMPDEST POP PUSH2 0x3DA PUSH2 0xDF8 JUMP JUMPDEST PUSH1 0x40 MLOAD PUSH2 0x3E7 SWAP2 SWAP1 PUSH2 0x1028 JUMP JUMPDEST PUSH1 0x40 MLOAD DUP1 SWAP2 SUB SWAP1 RETURN JUMPDEST PUSH2 0x3F8 PUSH2 0xDFE JUMP JUMPDEST PUSH2 0x400 PUSH2 0xE20 JUMP JUMPDEST PUSH0 PUSH0 SWAP1 POP JUMPDEST PUSH1 0x3 DUP2 LT ISZERO PUSH2 0x483 JUMPI PUSH0 DUP4 DUP3 PUSH1 0x3 DUP2 LT PUSH2 0x422 JUMPI PUSH2 0x421 PUSH2 0x12B2 JUMP JUMPDEST JUMPDEST PUSH1 0x20 MUL ADD SWAP1 PUSH20 0xFFFFFFFFFFFFFFFFFFFFFFFFFFFFFFFFFFFFFFFF AND SWAP1 DUP2 PUSH20 0xFFFFFFFFFFFFFFFFFFFFFFFFFFFFFFFFFFFFFFFF AND DUP2 MSTORE POP POP PUSH0 DUP3 DUP3 PUSH1 0x3 DUP2 LT PUSH2 0x46D JUMPI PUSH2 0x46C PUSH2 0x12B2 JUMP JUMPDEST JUMPDEST PUSH1 0x20 MUL ADD DUP2 DUP2 MSTORE POP POP DUP1 DUP1 PUSH1 0x1 ADD SWAP2 POP POP PUSH2 0x405 JUMP JUMPDEST POP PUSH0 PUSH0 SWAP1 POP JUMPDEST PUSH1 0x5 DUP1 SLOAD SWAP1 POP DUP2 LT ISZERO PUSH2 0x885 JUMPI PUSH0 PUSH1 0x5 DUP3 DUP2 SLOAD DUP2 LT PUSH2 0x4AB JUMPI PUSH2 0x4AA PUSH2 0x12B2 JUMP JUMPDEST JUMPDEST SWAP1 PUSH0 MSTORE PUSH1 0x20 PUSH0 KECCAK256 SWAP1 PUSH1 0x2 MUL ADD PUSH0 ADD PUSH0 SWAP1 SLOAD SWAP1 PUSH2 0x100 EXP SWAP1 DIV PUSH20 0xFFFFFFFFFFFFFFFFFFFFFFFFFFFFFFFFFFFFFFFF AND SWAP1 POP PUSH0 PUSH1 0x5 DUP4 DUP2 SLOAD DUP2 LT PUSH2 0x4F0 JUMPI PUSH2 0x4EF PUSH2 0x12B2 JUMP JUMPDEST JUMPDEST SWAP1 PUSH0 MSTORE PUSH1 0x20 PUSH0 KECCAK256 SWAP1 PUSH1 0x2 MUL ADD PUSH1 0x1 ADD SLOAD SWAP1 POP DUP4 PUSH0 PUSH1 0x3 DUP2 LT PUSH2 0x515 JUMPI PUSH2 0x514 PUSH2 0x12B2 JUMP JUMPDEST JUMPDEST PUSH1 0x20 MUL ADD MLOAD DUP2 GT ISZERO PUSH2 0x6C0 JUMPI DUP4 PUSH1 0x1 PUSH1 0x3 DUP2 LT PUSH2 0x535 JUMPI PUSH2 0x534 PUSH2 0x12B2 JUMP JUMPDEST JUMPDEST PUSH1 0x20 MUL ADD MLOAD DUP5 PUSH1 0x2 PUSH1 0x3 DUP2 LT PUSH2 0x54E JUMPI PUSH2 0x54D PUSH2 0x12B2 JUMP JUMPDEST JUMPDEST PUSH1 0x20 MUL ADD DUP2 DUP2 MSTORE POP POP DUP5 PUSH1 0x1 PUSH1 0x3 DUP2 LT PUSH2 0x56B JUMPI PUSH2 0x56A PUSH2 0x12B2 JUMP JUMPDEST JUMPDEST PUSH1 0x20 MUL ADD MLOAD DUP6 PUSH1 0x2 PUSH1 0x3 DUP2 LT PUSH2 0x584 JUMPI PUSH2 0x583 PUSH2 0x12B2 JUMP JUMPDEST JUMPDEST PUSH1 0x20 MUL ADD SWAP1 PUSH20 0xFFFFFFFFFFFFFFFFFFFFFFFFFFFFFFFFFFFFFFFF AND SWAP1 DUP2 PUSH20 0xFFFFFFFFFFFFFFFFFFFFFFFFFFFFFFFFFFFFFFFF AND DUP2 MSTORE POP POP DUP4 PUSH0 PUSH1 0x3 DUP2 LT PUSH2 0x5CE JUMPI PUSH2 0x5CD PUSH2 0x12B2 JUMP JUMPDEST JUMPDEST PUSH1 0x20 MUL ADD MLOAD DUP5 PUSH1 0x1 PUSH1 0x3 DUP2 LT PUSH2 0x5E7 JUMPI PUSH2 0x5E6 PUSH2 0x12B2 JUMP JUMPDEST JUMPDEST PUSH1 0x20 MUL ADD DUP2 DUP2 MSTORE POP POP DUP5 PUSH0 PUSH1 0x3 DUP2 LT PUSH2 0x603 JUMPI PUSH2 0x602 PUSH2 0x12B2 JUMP JUMPDEST JUMPDEST PUSH1 0x20 MUL ADD MLOAD DUP6 PUSH1 0x1 PUSH1 0x3 DUP2 LT PUSH2 0x61C JUMPI PUSH2 0x61B PUSH2 0x12B2 JUMP JUMPDEST JUMPDEST PUSH1 0x20 MUL ADD SWAP1 PUSH20 0xFFFFFFFFFFFFFFFFFFFFFFFFFFFFFFFFFFFFFFFF AND SWAP1 DUP2 PUSH20 0xFFFFFFFFFFFFFFFFFFFFFFFFFFFFFFFFFFFFFFFF AND DUP2 MSTORE POP POP DUP1 DUP5 PUSH0 PUSH1 0x3 DUP2 LT PUSH2 0x667 JUMPI PUSH2 0x666 PUSH2 0x12B2 JUMP JUMPDEST JUMPDEST PUSH1 0x20 MUL ADD DUP2 DUP2 MSTORE POP POP DUP2 DUP6 PUSH0 PUSH1 0x3 DUP2 LT PUSH2 0x684 JUMPI PUSH2 0x683 PUSH2 0x12B2 JUMP JUMPDEST JUMPDEST PUSH1 0x20 MUL ADD SWAP1 PUSH20 0xFFFFFFFFFFFFFFFFFFFFFFFFFFFFFFFFFFFFFFFF AND SWAP1 DUP2 PUSH20 0xFFFFFFFFFFFFFFFFFFFFFFFFFFFFFFFFFFFFFFFF AND DUP2 MSTORE POP POP PUSH2 0x876 JUMP JUMPDEST DUP4 PUSH1 0x1 PUSH1 0x3 DUP2 LT PUSH2 0x6D4 JUMPI PUSH2 0x6D3 PUSH2 0x12B2 JUMP JUMPDEST JUMPDEST PUSH1 0x20 MUL ADD MLOAD DUP2 GT ISZERO PUSH2 0x7E9 JUMPI DUP4 PUSH1 0x1 PUSH1 0x3 DUP2 LT PUSH2 0x6F4 JUMPI PUSH2 0x6F3 PUSH2 0x12B2 JUMP JUMPDEST JUMPDEST PUSH1 0x20 MUL ADD MLOAD DUP5 PUSH1 0x2 PUSH1 0x3 DUP2 LT PUSH2 0x70D JUMPI PUSH2 0x70C PUSH2 0x12B2 JUMP JUMPDEST JUMPDEST PUSH1 0x20 MUL ADD DUP2 DUP2 MSTORE POP POP DUP5 PUSH1 0x1 PUSH1 0x3 DUP2 LT PUSH2 0x72A JUMPI PUSH2 0x729 PUSH2 0x12B2 JUMP JUMPDEST JUMPDEST PUSH1 0x20 MUL ADD MLOAD DUP6 PUSH1 0x2 PUSH1 0x3 DUP2 LT PUSH2 0x743 JUMPI PUSH2 0x742 PUSH2 0x12B2 JUMP JUMPDEST JUMPDEST PUSH1 0x20 MUL ADD SWAP1 PUSH20 0xFFFFFFFFFFFFFFFFFFFFFFFFFFFFFFFFFFFFFFFF AND SWAP1 DUP2 PUSH20 0xFFFFFFFFFFFFFFFFFFFFFFFFFFFFFFFFFFFFFFFF AND DUP2 MSTORE POP POP DUP1 DUP5 PUSH1 0x1 PUSH1 0x3 DUP2 LT PUSH2 0x78F JUMPI PUSH2 0x78E PUSH2 0x12B2 JUMP JUMPDEST JUMPDEST PUSH1 0x20 MUL ADD DUP2 DUP2 MSTORE POP POP DUP2 DUP6 PUSH1 0x1 PUSH1 0x3 DUP2 LT PUSH2 0x7AD JUMPI PUSH2 0x7AC PUSH2 0x12B2 JUMP JUMPDEST JUMPDEST PUSH1 0x20 MUL ADD SWAP1 PUSH20 0xFFFFFFFFFFFFFFFFFFFFFFFFFFFFFFFFFFFFFFFF AND SWAP1 DUP2 PUSH20 0xFFFFFFFFFFFFFFFFFFFFFFFFFFFFFFFFFFFFFFFF AND DUP2 MSTORE POP POP PUSH2 0x875 JUMP JUMPDEST DUP4 PUSH1 0x2 PUSH1 0x3 DUP2 LT PUSH2 0x7FD JUMPI PUSH2 0x7FC PUSH2 0x12B2 JUMP JUMPDEST JUMPDEST PUSH1 0x20 MUL ADD MLOAD DUP2 GT ISZERO PUSH2 0x874 JUMPI DUP1 DUP5 PUSH1 0x2 PUSH1 0x3 DUP2 LT PUSH2 0x81E JUMPI PUSH2 0x81D PUSH2 0x12B2 JUMP JUMPDEST JUMPDEST PUSH1 0x20 MUL ADD DUP2 DUP2 MSTORE POP POP DUP2 DUP6 PUSH1 0x2 PUSH1 0x3 DUP2 LT PUSH2 0x83C JUMPI PUSH2 0x83B PUSH2 0x12B2 JUMP JUMPDEST JUMPDEST PUSH1 0x20 MUL ADD SWAP1 PUSH20 0xFFFFFFFFFFFFFFFFFFFFFFFFFFFFFFFFFFFFFFFF AND SWAP1 DUP2 PUSH20 0xFFFFFFFFFFFFFFFFFFFFFFFFFFFFFFFFFFFFFFFF AND DUP2 MSTORE POP POP JUMPDEST JUMPDEST JUMPDEST POP POP DUP1 DUP1 PUSH1 0x1 ADD SWAP2 POP POP PUSH2 0x489 JUMP JUMPDEST POP SWAP1 SWAP2 JUMP JUMPDEST PUSH0 PUSH0 SWAP1 SLOAD SWAP1 PUSH2 0x100 EXP SWAP1 DIV PUSH20 0xFFFFFFFFFFFFFFFFFFFFFFFFFFFFFFFFFFFFFFFF AND PUSH20 0xFFFFFFFFFFFFFFFFFFFFFFFFFFFFFFFFFFFFFFFF AND CALLER PUSH20 0xFFFFFFFFFFFFFFFFFFFFFFFFFFFFFFFFFFFFFFFF AND EQ PUSH2 0x918 JUMPI PUSH1 0x40 MLOAD PUSH32 0x8C379A000000000000000000000000000000000000000000000000000000000 DUP2 MSTORE PUSH1 0x4 ADD PUSH2 0x90F SWAP1 PUSH2 0x134F JUMP JUMPDEST PUSH1 0x40 MLOAD DUP1 SWAP2 SUB SWAP1 REVERT JUMPDEST PUSH0 SELFBALANCE SWAP1 POP PUSH0 DUP2 GT PUSH2 0x95E JUMPI PUSH1 0x40 MLOAD PUSH32 0x8C379A000000000000000000000000000000000000000000000000000000000 DUP2 MSTORE PUSH1 0x4 ADD PUSH2 0x955 SWAP1 PUSH2 0x13B7 JUMP JUMPDEST PUSH1 0x40 MLOAD DUP1 SWAP2 SUB SWAP1 REVERT JUMPDEST PUSH0 PUSH0 SWAP1 SLOAD SWAP1 PUSH2 0x100 EXP SWAP1 DIV PUSH20 0xFFFFFFFFFFFFFFFFFFFFFFFFFFFFFFFFFFFFFFFF AND PUSH20 0xFFFFFFFFFFFFFFFFFFFFFFFFFFFFFFFFFFFFFFFF AND PUSH2 0x8FC DUP3 SWAP1 DUP2 ISZERO MUL SWAP1 PUSH1 0x40 MLOAD PUSH0 PUSH1 0x40 MLOAD DUP1 DUP4 SUB DUP2 DUP6 DUP9 DUP9 CALL SWAP4 POP POP POP POP ISZERO DUP1 ISZERO PUSH2 0x9C1 JUMPI RETURNDATASIZE PUSH0 PUSH0 RETURNDATACOPY RETURNDATASIZE PUSH0 REVERT JUMPDEST POP PUSH0 PUSH0 SWAP1 SLOAD SWAP1 PUSH2 0x100 EXP SWAP1 DIV PUSH20 0xFFFFFFFFFFFFFFFFFFFFFFFFFFFFFFFFFFFFFFFF AND PUSH20 0xFFFFFFFFFFFFFFFFFFFFFFFFFFFFFFFFFFFFFFFF AND PUSH32 0x7FCF532C15F0A6DB0BD6D0E038BEA71D30D808C7D98CB3BF7268A95BF5081B65 DUP3 PUSH1 0x40 MLOAD PUSH2 0xA28 SWAP2 SWAP1 PUSH2 0x1028 JUMP JUMPDEST PUSH1 0x40 MLOAD DUP1 SWAP2 SUB SWAP1 LOG2 POP JUMP JUMPDEST PUSH0 PUSH1 0x1 PUSH0 DUP4 PUSH20 0xFFFFFFFFFFFFFFFFFFFFFFFFFFFFFFFFFFFFFFFF AND PUSH20 0xFFFFFFFFFFFFFFFFFFFFFFFFFFFFFFFFFFFFFFFF AND DUP2 MSTORE PUSH1 0x20 ADD SWAP1 DUP2 MSTORE PUSH1 0x20 ADD PUSH0 KECCAK256 SLOAD SWAP1 POP SWAP2 SWAP1 POP JUMP JUMPDEST PUSH0 SELFBALANCE SWAP1 POP SWAP1 JUMP JUMPDEST PUSH1 0x3 SLOAD DUP2 JUMP JUMPDEST PUSH0 PUSH0 SWAP1 SLOAD SWAP1 PUSH2 0x100 EXP SWAP1 DIV PUSH20 0xFFFFFFFFFFFFFFFFFFFFFFFFFFFFFFFFFFFFFFFF AND DUP2 JUMP JUMPDEST PUSH0 PUSH0 PUSH0 PUSH1 0x3 SLOAD TIMESTAMP LT ISZERO DUP1 ISZERO PUSH2 0xAC1 JUMPI POP PUSH1 0x4 SLOAD TIMESTAMP GT ISZERO JUMPDEST SWAP1 POP PUSH1 0x3 SLOAD PUSH1 0x4 SLOAD SWAP3 POP SWAP3 POP SWAP1 SWAP2 SWAP3 JUMP JUMPDEST PUSH1 0x1 PUSH1 0x20 MSTORE DUP1 PUSH0 MSTORE PUSH1 0x40 PUSH0 KECCAK256 PUSH0 SWAP2 POP SWAP1 POP SLOAD DUP2 JUMP JUMPDEST PUSH1 0x2 SLOAD DUP2 JUMP JUMPDEST PUSH1 0x3 SLOAD TIMESTAMP LT ISZERO PUSH2 0xB32 JUMPI PUSH1 0x40 MLOAD PUSH32 0x8C379A000000000000000000000000000000000000000000000000000000000 DUP2 MSTORE PUSH1 0x4 ADD PUSH2 0xB29 SWAP1 PUSH2 0xE9C JUMP JUMPDEST PUSH1 0x40 MLOAD DUP1 SWAP2 SUB SWAP1 REVERT JUMPDEST PUSH1 0x4 SLOAD TIMESTAMP GT ISZERO PUSH2 0xB77 JUMPI PUSH1 0x40 MLOAD PUSH32 0x8C379A000000000000000000000000000000000000000000000000000000000 DUP2 MSTORE PUSH1 0x4 ADD PUSH2 0xB6E SWAP1 PUSH2 0xF04 JUMP JUMPDEST PUSH1 0x40 MLOAD DUP1 SWAP2 SUB SWAP1 REVERT JUMPDEST PUSH0 CALLVALUE GT PUSH2 0xBB9 JUMPI PUSH1 0x40 MLOAD PUSH32 0x8C379A000000000000000000000000000000000000000000000000000000000 DUP2 MSTORE PUSH1 0x4 ADD PUSH2 0xBB0 SWAP1 PUSH2 0xF92 JUMP JUMPDEST PUSH1 0x40 MLOAD DUP1 SWAP2 SUB SWAP1 REVERT JUMPDEST CALLVALUE PUSH1 0x1 PUSH0 CALLER PUSH20 0xFFFFFFFFFFFFFFFFFFFFFFFFFFFFFFFFFFFFFFFF AND PUSH20 0xFFFFFFFFFFFFFFFFFFFFFFFFFFFFFFFFFFFFFFFF AND DUP2 MSTORE PUSH1 0x20 ADD SWAP1 DUP2 MSTORE PUSH1 0x20 ADD PUSH0 KECCAK256 PUSH0 DUP3 DUP3 SLOAD PUSH2 0xC05 SWAP2 SWAP1 PUSH2 0xFE6 JUMP JUMPDEST SWAP3 POP POP DUP2 SWAP1 SSTORE POP CALLVALUE PUSH1 0x2 PUSH0 DUP3 DUP3 SLOAD PUSH2 0xC1D SWAP2 SWAP1 PUSH2 0xFE6 JUMP JUMPDEST SWAP3 POP POP DUP2 SWAP1 SSTORE POP PUSH0 PUSH0 SWAP1 POP PUSH0 PUSH0 SWAP1 POP JUMPDEST PUSH1 0x5 DUP1 SLOAD SWAP1 POP DUP2 LT ISZERO PUSH2 0xCFD JUMPI CALLER PUSH20 0xFFFFFFFFFFFFFFFFFFFFFFFFFFFFFFFFFFFFFFFF AND PUSH1 0x5 DUP3 DUP2 SLOAD DUP2 LT PUSH2 0xC65 JUMPI PUSH2 0xC64 PUSH2 0x12B2 JUMP JUMPDEST JUMPDEST SWAP1 PUSH0 MSTORE PUSH1 0x20 PUSH0 KECCAK256 SWAP1 PUSH1 0x2 MUL ADD PUSH0 ADD PUSH0 SWAP1 SLOAD SWAP1 PUSH2 0x100 EXP SWAP1 DIV PUSH20 0xFFFFFFFFFFFFFFFFFFFFFFFFFFFFFFFFFFFFFFFF AND PUSH20 0xFFFFFFFFFFFFFFFFFFFFFFFFFFFFFFFFFFFFFFFF AND SUB PUSH2 0xCF0 JUMPI CALLVALUE PUSH1 0x5 DUP3 DUP2 SLOAD DUP2 LT PUSH2 0xCC3 JUMPI PUSH2 0xCC2 PUSH2 0x12B2 JUMP JUMPDEST JUMPDEST SWAP1 PUSH0 MSTORE PUSH1 0x20 PUSH0 KECCAK256 SWAP1 PUSH1 0x2 MUL ADD PUSH1 0x1 ADD PUSH0 DUP3 DUP3 SLOAD PUSH2 0xCE0 SWAP2 SWAP1 PUSH2 0xFE6 JUMP JUMPDEST SWAP3 POP POP DUP2 SWAP1 SSTORE POP PUSH1 0x1 SWAP2 POP PUSH2 0xCFD JUMP JUMPDEST DUP1 DUP1 PUSH1 0x1 ADD SWAP2 POP POP PUSH2 0xC2D JUMP JUMPDEST POP DUP1 PUSH2 0xDA7 JUMPI PUSH1 0x5 PUSH1 0x40 MLOAD DUP1 PUSH1 0x40 ADD PUSH1 0x40 MSTORE DUP1 CALLER PUSH20 0xFFFFFFFFFFFFFFFFFFFFFFFFFFFFFFFFFFFFFFFF AND DUP2 MSTORE PUSH1 0x20 ADD CALLVALUE DUP2 MSTORE POP SWAP1 DUP1 PUSH1 0x1 DUP2 SLOAD ADD DUP1 DUP3 SSTORE DUP1 SWAP2 POP POP PUSH1 0x1 SWAP1 SUB SWAP1 PUSH0 MSTORE PUSH1 0x20 PUSH0 KECCAK256 SWAP1 PUSH1 0x2 MUL ADD PUSH0 SWAP1 SWAP2 SWAP1 SWAP2 SWAP1 SWAP2 POP PUSH0 DUP3 ADD MLOAD DUP2 PUSH0 ADD PUSH0 PUSH2 0x100 EXP DUP2 SLOAD DUP2 PUSH20 0xFFFFFFFFFFFFFFFFFFFFFFFFFFFFFFFFFFFFFFFF MUL NOT AND SWAP1 DUP4 PUSH20 0xFFFFFFFFFFFFFFFFFFFFFFFFFFFFFFFFFFFFFFFF AND MUL OR SWAP1 SSTORE POP PUSH1 0x20 DUP3 ADD MLOAD DUP2 PUSH1 0x1 ADD SSTORE POP POP JUMPDEST CALLER PUSH20 0xFFFFFFFFFFFFFFFFFFFFFFFFFFFFFFFFFFFFFFFF AND PUSH32 0x5D8BC849764969EB1BCC6D0A2F55999D0167C1CCEC240A4F39CF664CA9C4148E CALLVALUE PUSH1 0x40 MLOAD PUSH2 0xDED SWAP2 SWAP1 PUSH2 0x1028 JUMP JUMPDEST PUSH1 0x40 MLOAD DUP1 SWAP2 SUB SWAP1 LOG2 POP JUMP JUMPDEST PUSH1 0x4 SLOAD DUP2 JUMP JUMPDEST PUSH1 0x40 MLOAD DUP1 PUSH1 0x60 ADD PUSH1 0x40 MSTORE DUP1 PUSH1 0x3 SWAP1 PUSH1 0x20 DUP3 MUL DUP1 CALLDATASIZE DUP4 CALLDATACOPY DUP1 DUP3 ADD SWAP2 POP POP SWAP1 POP POP SWAP1 JUMP JUMPDEST PUSH1 0x40 MLOAD DUP1 PUSH1 0x60 ADD PUSH1 0x40 MSTORE DUP1 PUSH1 0x3 SWAP1 PUSH1 0x20 DUP3 MUL DUP1 CALLDATASIZE DUP4 CALLDATACOPY DUP1 DUP3 ADD SWAP2 POP POP SWAP1 POP POP SWAP1 JUMP JUMPDEST PUSH0 DUP3 DUP3 MSTORE PUSH1 0x20 DUP3 ADD SWAP1 POP SWAP3 SWAP2 POP POP JUMP JUMPDEST PUSH32 0x446F6E6174696F6E20706572696F6420686173206E6F74207374617274656400 PUSH0 DUP3 ADD MSTORE POP JUMP JUMPDEST PUSH0 PUSH2 0xE86 PUSH1 0x1F DUP4 PUSH2 0xE42 JUMP JUMPDEST SWAP2 POP PUSH2 0xE91 DUP3 PUSH2 0xE52 JUMP JUMPDEST PUSH1 0x20 DUP3 ADD SWAP1 POP SWAP2 SWAP1 POP JUMP JUMPDEST PUSH0 PUSH1 0x20 DUP3 ADD SWAP1 POP DUP2 DUP2 SUB PUSH0 DUP4 ADD MSTORE PUSH2 0xEB3 DUP2 PUSH2 0xE7A JUMP JUMPDEST SWAP1 POP SWAP2 SWAP1 POP JUMP JUMPDEST PUSH32 0x446F6E6174696F6E20706572696F642068617320656E64656400000000000000 PUSH0 DUP3 ADD MSTORE POP JUMP JUMPDEST PUSH0 PUSH2 0xEEE PUSH1 0x19 DUP4 PUSH2 0xE42 JUMP JUMPDEST SWAP2 POP PUSH2 0xEF9 DUP3 PUSH2 0xEBA JUMP JUMPDEST PUSH1 0x20 DUP3 ADD SWAP1 POP SWAP2 SWAP1 POP JUMP JUMPDEST PUSH0 PUSH1 0x20 DUP3 ADD SWAP1 POP DUP2 DUP2 SUB PUSH0 DUP4 ADD MSTORE PUSH2 0xF1B DUP2 PUSH2 0xEE2 JUMP JUMPDEST SWAP1 POP SWAP2 SWAP1 POP JUMP JUMPDEST PUSH32 0x446F6E6174696F6E20616D6F756E74206D757374206265206772656174657220 PUSH0 DUP3 ADD MSTORE PUSH32 0x7468616E20300000000000000000000000000000000000000000000000000000 PUSH1 0x20 DUP3 ADD MSTORE POP JUMP JUMPDEST PUSH0 PUSH2 0xF7C PUSH1 0x26 DUP4 PUSH2 0xE42 JUMP JUMPDEST SWAP2 POP PUSH2 0xF87 DUP3 PUSH2 0xF22 JUMP JUMPDEST PUSH1 0x40 DUP3 ADD SWAP1 POP SWAP2 SWAP1 POP JUMP JUMPDEST PUSH0 PUSH1 0x20 DUP3 ADD SWAP1 POP DUP2 DUP2 SUB PUSH0 DUP4 ADD MSTORE PUSH2 0xFA9 DUP2 PUSH2 0xF70 JUMP JUMPDEST SWAP1 POP SWAP2 SWAP1 POP JUMP JUMPDEST PUSH0 DUP2 SWAP1 POP SWAP2 SWAP1 POP JUMP JUMPDEST PUSH32 0x4E487B7100000000000000000000000000000000000000000000000000000000 PUSH0 MSTORE PUSH1 0x11 PUSH1 0x4 MSTORE PUSH1 0x24 PUSH0 REVERT JUMPDEST PUSH0 PUSH2 0xFF0 DUP3 PUSH2 0xFB0 JUMP JUMPDEST SWAP2 POP PUSH2 0xFFB DUP4 PUSH2 0xFB0 JUMP JUMPDEST SWAP3 POP DUP3 DUP3 ADD SWAP1 POP DUP1 DUP3 GT ISZERO PUSH2 0x1013 JUMPI PUSH2 0x1012 PUSH2 0xFB9 JUMP JUMPDEST JUMPDEST SWAP3 SWAP2 POP POP JUMP JUMPDEST PUSH2 0x1022 DUP2 PUSH2 0xFB0 JUMP JUMPDEST DUP3 MSTORE POP POP JUMP JUMPDEST PUSH0 PUSH1 0x20 DUP3 ADD SWAP1 POP PUSH2 0x103B PUSH0 DUP4 ADD DUP5 PUSH2 0x1019 JUMP JUMPDEST SWAP3 SWAP2 POP POP JUMP JUMPDEST PUSH0 PUSH1 0x3 SWAP1 POP SWAP2 SWAP1 POP JUMP JUMPDEST PUSH0 DUP2 SWAP1 POP SWAP3 SWAP2 POP POP JUMP JUMPDEST PUSH0 DUP2 SWAP1 POP SWAP2 SWAP1 POP JUMP JUMPDEST PUSH0 PUSH20 0xFFFFFFFFFFFFFFFFFFFFFFFFFFFFFFFFFFFFFFFF DUP3 AND SWAP1 POP SWAP2 SWAP1 POP JUMP JUMPDEST PUSH0 PUSH2 0x1087 DUP3 PUSH2 0x105E JUMP JUMPDEST SWAP1 POP SWAP2 SWAP1 POP JUMP JUMPDEST PUSH2 0x1097 DUP2 PUSH2 0x107D JUMP JUMPDEST DUP3 MSTORE POP POP JUMP JUMPDEST PUSH0 PUSH2 0x10A8 DUP4 DUP4 PUSH2 0x108E JUMP JUMPDEST PUSH1 0x20 DUP4 ADD SWAP1 POP SWAP3 SWAP2 POP POP JUMP JUMPDEST PUSH0 PUSH1 0x20 DUP3 ADD SWAP1 POP SWAP2 SWAP1 POP JUMP JUMPDEST PUSH2 0x10C9 DUP2 PUSH2 0x1041 JUMP JUMPDEST PUSH2 0x10D3 DUP2 DUP5 PUSH2 0x104B JUMP JUMPDEST SWAP3 POP PUSH2 0x10DE DUP3 PUSH2 0x1055 JUMP JUMPDEST DUP1 PUSH0 JUMPDEST DUP4 DUP2 LT ISZERO PUSH2 0x110E JUMPI DUP2 MLOAD PUSH2 0x10F5 DUP8 DUP3 PUSH2 0x109D JUMP JUMPDEST SWAP7 POP PUSH2 0x1100 DUP4 PUSH2 0x10B4 JUMP JUMPDEST SWAP3 POP POP PUSH1 0x1 DUP2 ADD SWAP1 POP PUSH2 0x10E1 JUMP JUMPDEST POP POP POP POP POP POP JUMP JUMPDEST PUSH0 PUSH1 0x3 SWAP1 POP SWAP2 SWAP1 POP JUMP JUMPDEST PUSH0 DUP2 SWAP1 POP SWAP3 SWAP2 POP POP JUMP JUMPDEST PUSH0 DUP2 SWAP1 POP SWAP2 SWAP1 POP JUMP JUMPDEST PUSH2 0x113C DUP2 PUSH2 0xFB0 JUMP JUMPDEST DUP3 MSTORE POP POP JUMP JUMPDEST PUSH0 PUSH2 0x114D DUP4 DUP4 PUSH2 0x1133 JUMP JUMPDEST PUSH1 0x20 DUP4 ADD SWAP1 POP SWAP3 SWAP2 POP POP JUMP JUMPDEST PUSH0 PUSH1 0x20 DUP3 ADD SWAP1 POP SWAP2 SWAP1 POP JUMP JUMPDEST PUSH2 0x116E DUP2 PUSH2 0x1116 JUMP JUMPDEST PUSH2 0x1178 DUP2 DUP5 PUSH2 0x1120 JUMP JUMPDEST SWAP3 POP PUSH2 0x1183 DUP3 PUSH2 0x112A JUMP JUMPDEST DUP1 PUSH0 JUMPDEST DUP4 DUP2 LT ISZERO PUSH2 0x11B3 JUMPI DUP2 MLOAD PUSH2 0x119A DUP8 DUP3 PUSH2 0x1142 JUMP JUMPDEST SWAP7 POP PUSH2 0x11A5 DUP4 PUSH2 0x1159 JUMP JUMPDEST SWAP3 POP POP PUSH1 0x1 DUP2 ADD SWAP1 POP PUSH2 0x1186 JUMP JUMPDEST POP POP POP POP POP POP JUMP JUMPDEST PUSH0 PUSH1 0xC0 DUP3 ADD SWAP1 POP PUSH2 0x11CE PUSH0 DUP4 ADD DUP6 PUSH2 0x10C0 JUMP JUMPDEST PUSH2 0x11DB PUSH1 0x60 DUP4 ADD DUP5 PUSH2 0x1165 JUMP JUMPDEST SWAP4 SWAP3 POP POP POP JUMP JUMPDEST PUSH0 PUSH0 REVERT JUMPDEST PUSH2 0x11EF DUP2 PUSH2 0x107D JUMP JUMPDEST DUP2 EQ PUSH2 0x11F9 JUMPI PUSH0 PUSH0 REVERT JUMPDEST POP JUMP JUMPDEST PUSH0 DUP2 CALLDATALOAD SWAP1 POP PUSH2 0x120A DUP2 PUSH2 0x11E6 JUMP JUMPDEST SWAP3 SWAP2 POP POP JUMP JUMPDEST PUSH0 PUSH1 0x20 DUP3 DUP5 SUB SLT ISZERO PUSH2 0x1225 JUMPI PUSH2 0x1224 PUSH2 0x11E2 JUMP JUMPDEST JUMPDEST PUSH0 PUSH2 0x1232 DUP5 DUP3 DUP6 ADD PUSH2 0x11FC JUMP JUMPDEST SWAP2 POP POP SWAP3 SWAP2 POP POP JUMP JUMPDEST PUSH2 0x1244 DUP2 PUSH2 0x107D JUMP JUMPDEST DUP3 MSTORE POP POP JUMP JUMPDEST PUSH0 PUSH1 0x20 DUP3 ADD SWAP1 POP PUSH2 0x125D PUSH0 DUP4 ADD DUP5 PUSH2 0x123B JUMP JUMPDEST SWAP3 SWAP2 POP POP JUMP JUMPDEST PUSH0 DUP2 ISZERO ISZERO SWAP1 POP SWAP2 SWAP1 POP JUMP JUMPDEST PUSH2 0x1277 DUP2 PUSH2 0x1263 JUMP JUMPDEST DUP3 MSTORE POP POP JUMP JUMPDEST PUSH0 PUSH1 0x60 DUP3 ADD SWAP1 POP PUSH2 0x1290 PUSH0 DUP4 ADD DUP7 PUSH2 0x1019 JUMP JUMPDEST PUSH2 0x129D PUSH1 0x20 DUP4 ADD DUP6 PUSH2 0x1019 JUMP JUMPDEST PUSH2 0x12AA PUSH1 0x40 DUP4 ADD DUP5 PUSH2 0x126E JUMP JUMPDEST SWAP5 SWAP4 POP POP POP POP JUMP JUMPDEST PUSH32 0x4E487B7100000000000000000000000000000000000000000000000000000000 PUSH0 MSTORE PUSH1 0x32 PUSH1 0x4 MSTORE PUSH1 0x24 PUSH0 REVERT JUMPDEST PUSH32 0x4F6E6C79206F776E65722063616E2063616C6C20746869732066756E6374696F PUSH0 DUP3 ADD MSTORE PUSH32 0x6E00000000000000000000000000000000000000000000000000000000000000 PUSH1 0x20 DUP3 ADD MSTORE POP JUMP JUMPDEST PUSH0 PUSH2 0x1339 PUSH1 0x21 DUP4 PUSH2 0xE42 JUMP JUMPDEST SWAP2 POP PUSH2 0x1344 DUP3 PUSH2 0x12DF JUMP JUMPDEST PUSH1 0x40 DUP3 ADD SWAP1 POP SWAP2 SWAP1 POP JUMP JUMPDEST PUSH0 PUSH1 0x20 DUP3 ADD SWAP1 POP DUP2 DUP2 SUB PUSH0 DUP4 ADD MSTORE PUSH2 0x1366 DUP2 PUSH2 0x132D JUMP JUMPDEST SWAP1 POP SWAP2 SWAP1 POP JUMP JUMPDEST PUSH32 0x4E6F2066756E647320746F207769746864726177000000000000000000000000 PUSH0 DUP3 ADD MSTORE POP JUMP JUMPDEST PUSH0 PUSH2 0x13A1 PUSH1 0x14 DUP4 PUSH2 0xE42 JUMP JUMPDEST SWAP2 POP PUSH2 0x13AC DUP3 PUSH2 0x136D JUMP JUMPDEST PUSH1 0x20 DUP3 ADD SWAP1 POP SWAP2 SWAP1 POP JUMP JUMPDEST PUSH0 PUSH1 0x20 DUP3 ADD SWAP1 POP DUP2 DUP2 SUB PUSH0 DUP4 ADD MSTORE PUSH2 0x13CE DUP2 PUSH2 0x1395 JUMP JUMPDEST SWAP1 POP SWAP2 SWAP1 POP JUMP INVALID LOG2 PUSH5 0x6970667358 0x22 SLT KECCAK256 CALLF 0x7C3F 0xCD PUSH0 0x2A BLOBBASEFEE 0x25 ORIGIN SHR 0xD5 CALL 0x4C 0xE9 SWAP10 0x26 EXTCALL 0xC2 LOG1 DUP16 EXTCALL MSIZE 0xF6 0x27 OR RETF PUSH28 0x82CE40C1C964736F6C634300081E0033000000000000000000000000 "
				},
				"gasEstimates": {
					"creation": {
						"codeDepositCost": "1026200",
						"executionCost": "infinite",
						"totalCost": "infinite"
					},
					"external": {
						"donate()": "infinite",
						"donationEndTime()": "2535",
						"donationStartTime()": "2514",
						"donations(address)": "2846",
						"getContractBalance()": "401",
						"getDonation(address)": "2874",
						"getDonationPeriod()": "infinite",
						"getTop3Donors()": "infinite",
						"owner()": "2507",
						"totalDonations()": "2491",
						"withdraw()": "infinite"
					}
				},
				"methodIdentifiers": {
					"donate()": "ed88c68e",
					"donationEndTime()": "f12a4a53",
					"donationStartTime()": "78331552",
					"donations(address)": "cc6cb19a",
					"getContractBalance()": "6f9fb98a",
					"getDonation(address)": "410a1d32",
					"getDonationPeriod()": "9fc2ac9d",
					"getTop3Donors()": "2d1e2518",
					"owner()": "8da5cb5b",
					"totalDonations()": "de2ed893",
					"withdraw()": "3ccfd60b"
				}
			},
			"storageLayout": {
				"storage": [
					{
						"astId": 3,
						"contract": "contracts/BeggingContract.sol:BeggingContract",
						"label": "owner",
						"offset": 0,
						"slot": "0",
						"type": "t_address"
					},
					{
						"astId": 7,
						"contract": "contracts/BeggingContract.sol:BeggingContract",
						"label": "donations",
						"offset": 0,
						"slot": "1",
						"type": "t_mapping(t_address,t_uint256)"
					},
					{
						"astId": 9,
						"contract": "contracts/BeggingContract.sol:BeggingContract",
						"label": "totalDonations",
						"offset": 0,
						"slot": "2",
						"type": "t_uint256"
					},
					{
						"astId": 11,
						"contract": "contracts/BeggingContract.sol:BeggingContract",
						"label": "donationStartTime",
						"offset": 0,
						"slot": "3",
						"type": "t_uint256"
					},
					{
						"astId": 13,
						"contract": "contracts/BeggingContract.sol:BeggingContract",
						"label": "donationEndTime",
						"offset": 0,
						"slot": "4",
						"type": "t_uint256"
					},
					{
						"astId": 34,
						"contract": "contracts/BeggingContract.sol:BeggingContract",
						"label": "allDonors",
						"offset": 0,
						"slot": "5",
						"type": "t_array(t_struct(Donor)30_storage)dyn_storage"
					}
				],
				"types": {
					"t_address": {
						"encoding": "inplace",
						"label": "address",
						"numberOfBytes": "20"
					},
					"t_array(t_struct(Donor)30_storage)dyn_storage": {
						"base": "t_struct(Donor)30_storage",
						"encoding": "dynamic_array",
						"label": "struct BeggingContract.Donor[]",
						"numberOfBytes": "32"
					},
					"t_mapping(t_address,t_uint256)": {
						"encoding": "mapping",
						"key": "t_address",
						"label": "mapping(address => uint256)",
						"numberOfBytes": "32",
						"value": "t_uint256"
					},
					"t_struct(Donor)30_storage": {
						"encoding": "inplace",
						"label": "struct BeggingContract.Donor",
						"members": [
							{
								"astId": 27,
								"contract": "contracts/BeggingContract.sol:BeggingContract",
								"label": "donorAddress",
								"offset": 0,
								"slot": "0",
								"type": "t_address"
							},
							{
								"astId": 29,
								"contract": "contracts/BeggingContract.sol:BeggingContract",
								"label": "amount",
								"offset": 0,
								"slot": "1",
								"type": "t_uint256"
							}
						],
						"numberOfBytes": "64"
					},
					"t_uint256": {
						"encoding": "inplace",
						"label": "uint256",
						"numberOfBytes": "32"
					}
				}
			},
			"userdoc": {
				"kind": "user",
				"methods": {},
				"version": 1
			}
		}
	}
}